{
  "contractName": "Sample",
  "abi": [
    {
      "inputs": [],
      "payable": false,
      "stateMutability": "nonpayable",
      "type": "constructor"
    },
    {
      "anonymous": false,
      "inputs": [
        {
          "indexed": false,
          "internalType": "uint256",
          "name": "rec",
          "type": "uint256"
        }
      ],
      "name": "SetRecord",
      "type": "event"
    },
    {
      "constant": true,
      "inputs": [],
      "name": "record",
      "outputs": [
        {
          "internalType": "uint256",
          "name": "",
          "type": "uint256"
        }
      ],
      "payable": false,
      "stateMutability": "view",
      "type": "function"
    },
    {
      "constant": false,
      "inputs": [
        {
          "internalType": "uint256",
          "name": "rec",
          "type": "uint256"
        }
      ],
      "name": "setRecord",
      "outputs": [],
      "payable": false,
      "stateMutability": "nonpayable",
      "type": "function"
    }
  ],
  "bytecode": "0x608060405234801561001057600080fd5b50600a60008190555060fc806100276000396000f3fe6080604052348015600f57600080fd5b506004361060325760003560e01c806320c93539146037578063266cf109146062575b600080fd5b606060048036036020811015604b57600080fd5b8101908080359060200190929190505050607e565b005b606860c1565b6040518082815260200191505060405180910390f35b806000819055507f4d86c479b0ba4a9cfbb0bb52571ab2e9d0b6b4b0b6d70e6a7907848d41775b6a6000546040518082815260200191505060405180910390a150565b6000548156fea265627a7a7231582016d603e65fbfadede8b2790a608e6eb7431f526cf6640d85deaa9e7d53fa147464736f6c63430005100032",
  "source": "\npragma solidity ^0.5.0;\n\n/* contract Sample for test\n * */\ncontract Sample {\n\n    uint256 public record;\n\n    event SetRecord(uint256 rec);\n\n    /* constructor\n    * */\n    constructor() public {\n        record = 10;\n    }\n\n    /* get seed\n     * */\n    function setRecord(uint256 rec) public {\n        record = rec;\n        emit SetRecord(record);\n    }\n}\n\n\n",
  "sourcePath": "/home/henry/learning/git/ethereum/sample/contracts/Sample.sol",
  "compiler": {
    "name": "solc",
    "version": "0.5.16+commit.9c3226ce.Emscripten.clang"
  },
  "schemaVersion": "3.1.0",
  "updatedAt": "2020-10-31T09:18:37.709Z",
  "devdoc": {
    "methods": {}
  },
  "userdoc": {
    "methods": {}
  }
}