{
  "contractName": "Destruct",
  "abi": [
    {
      "inputs": [],
      "payable": false,
      "stateMutability": "nonpayable",
      "type": "constructor"
    },
    {
      "anonymous": false,
      "inputs": [
        {
          "indexed": false,
          "internalType": "uint256",
          "name": "random",
          "type": "uint256"
        }
      ],
      "name": "Random",
      "type": "event"
    },
    {
      "constant": true,
      "inputs": [],
      "name": "_owner",
      "outputs": [
        {
          "internalType": "address payable",
          "name": "",
          "type": "address"
        }
      ],
      "payable": false,
      "stateMutability": "view",
      "type": "function"
    },
    {
      "constant": false,
      "inputs": [
        {
          "internalType": "uint256",
          "name": "seed",
          "type": "uint256"
        }
      ],
      "name": "random",
      "outputs": [
        {
          "internalType": "uint256",
          "name": "ret",
          "type": "uint256"
        }
      ],
      "payable": false,
      "stateMutability": "nonpayable",
      "type": "function"
    },
    {
      "constant": false,
      "inputs": [],
      "name": "close",
      "outputs": [],
      "payable": false,
      "stateMutability": "nonpayable",
      "type": "function"
    },
    {
      "constant": true,
      "inputs": [],
      "name": "getSeed",
      "outputs": [
        {
          "internalType": "uint256",
          "name": "",
          "type": "uint256"
        }
      ],
      "payable": false,
      "stateMutability": "view",
      "type": "function"
    }
  ],
  "bytecode": "0x60806040526000805534801561001457600080fd5b5033600160006101000a81548173ffffffffffffffffffffffffffffffffffffffff021916908373ffffffffffffffffffffffffffffffffffffffff160217905550610395806100656000396000f3fe608060405234801561001057600080fd5b506004361061004c5760003560e01c806339e7357c1461005157806343d726d61461006f578063b2bdfa7b14610079578063b863bd37146100c3575b600080fd5b610059610105565b6040518082815260200191505060405180910390f35b61007761010e565b005b61008161020c565b604051808273ffffffffffffffffffffffffffffffffffffffff1673ffffffffffffffffffffffffffffffffffffffff16815260200191505060405180910390f35b6100ef600480360360208110156100d957600080fd5b8101908080359060200190929190505050610232565b6040518082815260200191505060405180910390f35b60008054905090565b600160009054906101000a900473ffffffffffffffffffffffffffffffffffffffff1673ffffffffffffffffffffffffffffffffffffffff163373ffffffffffffffffffffffffffffffffffffffff16146101d1576040517f08c379a00000000000000000000000000000000000000000000000000000000081526004018080602001828103825260208152602001807f4f776e61626c653a2063616c6c6572206973206e6f7420746865206f776e657281525060200191505060405180910390fd5b600160009054906101000a900473ffffffffffffffffffffffffffffffffffffffff1673ffffffffffffffffffffffffffffffffffffffff16ff5b600160009054906101000a900473ffffffffffffffffffffffffffffffffffffffff1681565b60003273ffffffffffffffffffffffffffffffffffffffff163373ffffffffffffffffffffffffffffffffffffffff16146102d5576040517f08c379a00000000000000000000000000000000000000000000000000000000081526004018080602001828103825260168152602001807f4d5553545f4f524944494e4152595f4143434f554e540000000000000000000081525060200191505060405180910390fd5b816000808282540192505081905550600143034060001c90508060005460405160200180838152602001828152602001925050506040516020818303038152906040528051906020012060001c90507fbcf69e7223438137d9099bb71b1772c3eb2a5a8840750b247913cd6fd4d249d5816040518082815260200191505060405180910390a191905056fea265627a7a723158200c6b8e40f9cff76f96415d63597eddb8f34476b647921b88e25bbd6a986feffb64736f6c63430005100032",
  "source": "pragma solidity ^0.5.0;\n\ncontract Destruct {\n\n    uint256 private _seed = 0;\n    address payable public _owner;\n\n    event Random(uint256 random);\n\n    /* constructor\n     * */\n    constructor() public {\n        _owner = msg.sender;\n    }\n\n    /* create random number\n     * */\n    function random(uint256 seed) public returns(uint256 ret) {\n        require(msg.sender == tx.origin, \"MUST_ORIDINARY_ACCOUNT\");\n        _seed += seed;\n        ret = uint256(blockhash(block.number - 1));\n        ret = uint256(keccak256(abi.encodePacked(ret, _seed)));\n        emit Random(ret);\n    }\n\n    function close() onlyOwner public {\n        selfdestruct(_owner);\n    }\n\n    modifier onlyOwner() {\n        require(msg.sender == _owner, \"Ownable: caller is not the owner\");\n        _;\n    }\n\n    /* get seed\n     * */\n    function getSeed() public view returns(uint256) {\n        return _seed;\n    }\n}\n",
  "sourcePath": "/home/henry/learning/git/ethereum/contracts/Destruct.sol",
  "compiler": {
    "name": "solc",
    "version": "0.5.16+commit.9c3226ce.Emscripten.clang"
  },
  "schemaVersion": "3.1.0",
  "updatedAt": "2020-10-13T01:04:16.537Z",
  "devdoc": {
    "methods": {}
  },
  "userdoc": {
    "methods": {}
  }
}