{
  "contractName": "Exchange",
  "abi": [
    {
      "inputs": [
        {
          "internalType": "address",
          "name": "feeAccount_",
          "type": "address"
        }
      ],
      "payable": false,
      "stateMutability": "nonpayable",
      "type": "constructor"
    },
    {
      "anonymous": false,
      "inputs": [
        {
          "indexed": false,
          "internalType": "address",
          "name": "tokenBuy",
          "type": "address"
        },
        {
          "indexed": false,
          "internalType": "uint256",
          "name": "amountBuy",
          "type": "uint256"
        },
        {
          "indexed": false,
          "internalType": "address",
          "name": "tokenSell",
          "type": "address"
        },
        {
          "indexed": false,
          "internalType": "uint256",
          "name": "amountSell",
          "type": "uint256"
        },
        {
          "indexed": false,
          "internalType": "uint256",
          "name": "expires",
          "type": "uint256"
        },
        {
          "indexed": false,
          "internalType": "uint256",
          "name": "nonce",
          "type": "uint256"
        },
        {
          "indexed": false,
          "internalType": "address",
          "name": "user",
          "type": "address"
        },
        {
          "indexed": false,
          "internalType": "uint8",
          "name": "v",
          "type": "uint8"
        },
        {
          "indexed": false,
          "internalType": "bytes32",
          "name": "r",
          "type": "bytes32"
        },
        {
          "indexed": false,
          "internalType": "bytes32",
          "name": "s",
          "type": "bytes32"
        }
      ],
      "name": "Cancel",
      "type": "event"
    },
    {
      "anonymous": false,
      "inputs": [
        {
          "indexed": false,
          "internalType": "address",
          "name": "token",
          "type": "address"
        },
        {
          "indexed": false,
          "internalType": "address",
          "name": "user",
          "type": "address"
        },
        {
          "indexed": false,
          "internalType": "uint256",
          "name": "amount",
          "type": "uint256"
        },
        {
          "indexed": false,
          "internalType": "uint256",
          "name": "balance",
          "type": "uint256"
        }
      ],
      "name": "Deposit",
      "type": "event"
    },
    {
      "anonymous": false,
      "inputs": [
        {
          "indexed": false,
          "internalType": "address",
          "name": "tokenBuy",
          "type": "address"
        },
        {
          "indexed": false,
          "internalType": "uint256",
          "name": "amountBuy",
          "type": "uint256"
        },
        {
          "indexed": false,
          "internalType": "address",
          "name": "tokenSell",
          "type": "address"
        },
        {
          "indexed": false,
          "internalType": "uint256",
          "name": "amountSell",
          "type": "uint256"
        },
        {
          "indexed": false,
          "internalType": "uint256",
          "name": "expires",
          "type": "uint256"
        },
        {
          "indexed": false,
          "internalType": "uint256",
          "name": "nonce",
          "type": "uint256"
        },
        {
          "indexed": false,
          "internalType": "address",
          "name": "user",
          "type": "address"
        },
        {
          "indexed": false,
          "internalType": "uint8",
          "name": "v",
          "type": "uint8"
        },
        {
          "indexed": false,
          "internalType": "bytes32",
          "name": "r",
          "type": "bytes32"
        },
        {
          "indexed": false,
          "internalType": "bytes32",
          "name": "s",
          "type": "bytes32"
        }
      ],
      "name": "Order",
      "type": "event"
    },
    {
      "anonymous": false,
      "inputs": [
        {
          "indexed": true,
          "internalType": "address",
          "name": "previousOwner",
          "type": "address"
        },
        {
          "indexed": true,
          "internalType": "address",
          "name": "newOwner",
          "type": "address"
        }
      ],
      "name": "SetOwner",
      "type": "event"
    },
    {
      "anonymous": false,
      "inputs": [
        {
          "indexed": false,
          "internalType": "address",
          "name": "tokenBuy",
          "type": "address"
        },
        {
          "indexed": false,
          "internalType": "uint256",
          "name": "amountBuy",
          "type": "uint256"
        },
        {
          "indexed": false,
          "internalType": "address",
          "name": "tokenSell",
          "type": "address"
        },
        {
          "indexed": false,
          "internalType": "uint256",
          "name": "amountSell",
          "type": "uint256"
        },
        {
          "indexed": false,
          "internalType": "address",
          "name": "get",
          "type": "address"
        },
        {
          "indexed": false,
          "internalType": "address",
          "name": "give",
          "type": "address"
        }
      ],
      "name": "Trade",
      "type": "event"
    },
    {
      "anonymous": false,
      "inputs": [
        {
          "indexed": false,
          "internalType": "address",
          "name": "token",
          "type": "address"
        },
        {
          "indexed": false,
          "internalType": "address",
          "name": "user",
          "type": "address"
        },
        {
          "indexed": false,
          "internalType": "uint256",
          "name": "amount",
          "type": "uint256"
        },
        {
          "indexed": false,
          "internalType": "uint256",
          "name": "balance",
          "type": "uint256"
        }
      ],
      "name": "Withdraw",
      "type": "event"
    },
    {
      "payable": false,
      "stateMutability": "nonpayable",
      "type": "fallback"
    },
    {
      "constant": true,
      "inputs": [
        {
          "internalType": "address",
          "name": "",
          "type": "address"
        }
      ],
      "name": "admins",
      "outputs": [
        {
          "internalType": "bool",
          "name": "",
          "type": "bool"
        }
      ],
      "payable": false,
      "stateMutability": "view",
      "type": "function"
    },
    {
      "constant": true,
      "inputs": [],
      "name": "feeAccount",
      "outputs": [
        {
          "internalType": "address",
          "name": "",
          "type": "address"
        }
      ],
      "payable": false,
      "stateMutability": "view",
      "type": "function"
    },
    {
      "constant": true,
      "inputs": [],
      "name": "inactivityReleasePeriod",
      "outputs": [
        {
          "internalType": "uint256",
          "name": "",
          "type": "uint256"
        }
      ],
      "payable": false,
      "stateMutability": "view",
      "type": "function"
    },
    {
      "constant": true,
      "inputs": [
        {
          "internalType": "address",
          "name": "",
          "type": "address"
        }
      ],
      "name": "invalidOrder",
      "outputs": [
        {
          "internalType": "uint256",
          "name": "",
          "type": "uint256"
        }
      ],
      "payable": false,
      "stateMutability": "view",
      "type": "function"
    },
    {
      "constant": true,
      "inputs": [
        {
          "internalType": "address",
          "name": "",
          "type": "address"
        }
      ],
      "name": "lastActiveTransaction",
      "outputs": [
        {
          "internalType": "uint256",
          "name": "",
          "type": "uint256"
        }
      ],
      "payable": false,
      "stateMutability": "view",
      "type": "function"
    },
    {
      "constant": true,
      "inputs": [
        {
          "internalType": "bytes32",
          "name": "",
          "type": "bytes32"
        }
      ],
      "name": "orderFills",
      "outputs": [
        {
          "internalType": "uint256",
          "name": "",
          "type": "uint256"
        }
      ],
      "payable": false,
      "stateMutability": "view",
      "type": "function"
    },
    {
      "constant": true,
      "inputs": [],
      "name": "owner",
      "outputs": [
        {
          "internalType": "address",
          "name": "",
          "type": "address"
        }
      ],
      "payable": false,
      "stateMutability": "view",
      "type": "function"
    },
    {
      "constant": true,
      "inputs": [
        {
          "internalType": "address",
          "name": "",
          "type": "address"
        },
        {
          "internalType": "address",
          "name": "",
          "type": "address"
        }
      ],
      "name": "tokens",
      "outputs": [
        {
          "internalType": "uint256",
          "name": "",
          "type": "uint256"
        }
      ],
      "payable": false,
      "stateMutability": "view",
      "type": "function"
    },
    {
      "constant": true,
      "inputs": [
        {
          "internalType": "bytes32",
          "name": "",
          "type": "bytes32"
        }
      ],
      "name": "traded",
      "outputs": [
        {
          "internalType": "bool",
          "name": "",
          "type": "bool"
        }
      ],
      "payable": false,
      "stateMutability": "view",
      "type": "function"
    },
    {
      "constant": true,
      "inputs": [
        {
          "internalType": "bytes32",
          "name": "",
          "type": "bytes32"
        }
      ],
      "name": "withdrawn",
      "outputs": [
        {
          "internalType": "bool",
          "name": "",
          "type": "bool"
        }
      ],
      "payable": false,
      "stateMutability": "view",
      "type": "function"
    },
    {
      "constant": false,
      "inputs": [
        {
          "internalType": "address",
          "name": "newOwner",
          "type": "address"
        }
      ],
      "name": "setOwner",
      "outputs": [],
      "payable": false,
      "stateMutability": "nonpayable",
      "type": "function"
    },
    {
      "constant": true,
      "inputs": [],
      "name": "getOwner",
      "outputs": [
        {
          "internalType": "address",
          "name": "out",
          "type": "address"
        }
      ],
      "payable": false,
      "stateMutability": "view",
      "type": "function"
    },
    {
      "constant": false,
      "inputs": [
        {
          "internalType": "address",
          "name": "user",
          "type": "address"
        },
        {
          "internalType": "uint256",
          "name": "nonce",
          "type": "uint256"
        }
      ],
      "name": "invalidateOrdersBefore",
      "outputs": [],
      "payable": false,
      "stateMutability": "nonpayable",
      "type": "function"
    },
    {
      "constant": false,
      "inputs": [
        {
          "internalType": "uint256",
          "name": "expiry",
          "type": "uint256"
        }
      ],
      "name": "setInactivityReleasePeriod",
      "outputs": [
        {
          "internalType": "bool",
          "name": "success",
          "type": "bool"
        }
      ],
      "payable": false,
      "stateMutability": "nonpayable",
      "type": "function"
    },
    {
      "constant": false,
      "inputs": [
        {
          "internalType": "address",
          "name": "admin",
          "type": "address"
        },
        {
          "internalType": "bool",
          "name": "isAdmin",
          "type": "bool"
        }
      ],
      "name": "setAdmin",
      "outputs": [],
      "payable": false,
      "stateMutability": "nonpayable",
      "type": "function"
    },
    {
      "constant": false,
      "inputs": [
        {
          "internalType": "address",
          "name": "token",
          "type": "address"
        },
        {
          "internalType": "uint256",
          "name": "amount",
          "type": "uint256"
        }
      ],
      "name": "depositToken",
      "outputs": [],
      "payable": false,
      "stateMutability": "nonpayable",
      "type": "function"
    },
    {
      "constant": false,
      "inputs": [],
      "name": "deposit",
      "outputs": [],
      "payable": true,
      "stateMutability": "payable",
      "type": "function"
    },
    {
      "constant": false,
      "inputs": [
        {
          "internalType": "address",
          "name": "token",
          "type": "address"
        },
        {
          "internalType": "uint256",
          "name": "amount",
          "type": "uint256"
        }
      ],
      "name": "withdraw",
      "outputs": [],
      "payable": false,
      "stateMutability": "nonpayable",
      "type": "function"
    },
    {
      "constant": false,
      "inputs": [
        {
          "internalType": "address",
          "name": "token",
          "type": "address"
        },
        {
          "internalType": "uint256",
          "name": "amount",
          "type": "uint256"
        },
        {
          "internalType": "address payable",
          "name": "user",
          "type": "address"
        },
        {
          "internalType": "uint256",
          "name": "nonce",
          "type": "uint256"
        },
        {
          "internalType": "uint8",
          "name": "v",
          "type": "uint8"
        },
        {
          "internalType": "bytes32",
          "name": "r",
          "type": "bytes32"
        },
        {
          "internalType": "bytes32",
          "name": "s",
          "type": "bytes32"
        },
        {
          "internalType": "uint256",
          "name": "feeWithdrawal",
          "type": "uint256"
        }
      ],
      "name": "adminWithdraw",
      "outputs": [],
      "payable": false,
      "stateMutability": "nonpayable",
      "type": "function"
    },
    {
      "constant": true,
      "inputs": [
        {
          "internalType": "address",
          "name": "token",
          "type": "address"
        },
        {
          "internalType": "address",
          "name": "user",
          "type": "address"
        }
      ],
      "name": "balanceOf",
      "outputs": [
        {
          "internalType": "uint256",
          "name": "",
          "type": "uint256"
        }
      ],
      "payable": false,
      "stateMutability": "view",
      "type": "function"
    },
    {
      "constant": false,
      "inputs": [
        {
          "internalType": "uint256[8]",
          "name": "tradeValues",
          "type": "uint256[8]"
        },
        {
          "internalType": "address[4]",
          "name": "tradeAddresses",
          "type": "address[4]"
        },
        {
          "internalType": "uint8[2]",
          "name": "v",
          "type": "uint8[2]"
        },
        {
          "internalType": "bytes32[4]",
          "name": "rs",
          "type": "bytes32[4]"
        }
      ],
      "name": "trade",
      "outputs": [],
      "payable": false,
      "stateMutability": "nonpayable",
      "type": "function"
    }
  ],
  "bytecode": "0x608060405234801561001057600080fd5b506040516137113803806137118339818101604052602081101561003357600080fd5b8101908080519060200190929190505050336000806101000a81548173ffffffffffffffffffffffffffffffffffffffff021916908373ffffffffffffffffffffffffffffffffffffffff16021790555080600660006101000a81548173ffffffffffffffffffffffffffffffffffffffff021916908373ffffffffffffffffffffffffffffffffffffffff160217905550620186a060078190555050613632806100df6000396000f3fe60806040526004361061012a5760003560e01c8063893d20e8116100ab578063dd93c74a1161006f578063dd93c74a146106be578063ef34358814610711578063f31174ee14610848578063f3fef3a314610873578063f7213db6146108ce578063f7888aec1461091d5761012a565b8063893d20e8146105585780638da5cb5b146105af578063b12de55914610606578063d0e30db014610661578063d58133231461066b5761012a565b8063429b62e5116100f2578063429b62e5146103515780634b0bddd2146103ba578063508493bc1461041757806365e17c9d1461049c57806383dbb27b146104f35761012a565b806313af40351461013c5780632295115b1461018d578063254dcfe21461023e578063338b5dea146102a35780633823d66c146102fe575b34801561013657600080fd5b50600080fd5b34801561014857600080fd5b5061018b6004803603602081101561015f57600080fd5b81019080803573ffffffffffffffffffffffffffffffffffffffff1690602001909291905050506109a2565b005b34801561019957600080fd5b5061023c60048036036101008110156101b157600080fd5b81019080803573ffffffffffffffffffffffffffffffffffffffff16906020019092919080359060200190929190803573ffffffffffffffffffffffffffffffffffffffff16906020019092919080359060200190929190803560ff169060200190929190803590602001909291908035906020019092919080359060200190929190505050610ab6565b005b34801561024a57600080fd5b5061028d6004803603602081101561026157600080fd5b81019080803573ffffffffffffffffffffffffffffffffffffffff169060200190929190505050611372565b6040518082815260200191505060405180910390f35b3480156102af57600080fd5b506102fc600480360360408110156102c657600080fd5b81019080803573ffffffffffffffffffffffffffffffffffffffff1690602001909291908035906020019092919050505061138a565b005b34801561030a57600080fd5b506103376004803603602081101561032157600080fd5b81019080803590602001909291905050506116fa565b604051808215151515815260200191505060405180910390f35b34801561035d57600080fd5b506103a06004803603602081101561037457600080fd5b81019080803573ffffffffffffffffffffffffffffffffffffffff16906020019092919050505061171a565b604051808215151515815260200191505060405180910390f35b3480156103c657600080fd5b50610415600480360360408110156103dd57600080fd5b81019080803573ffffffffffffffffffffffffffffffffffffffff16906020019092919080351515906020019092919050505061173a565b005b34801561042357600080fd5b506104866004803603604081101561043a57600080fd5b81019080803573ffffffffffffffffffffffffffffffffffffffff169060200190929190803573ffffffffffffffffffffffffffffffffffffffff1690602001909291905050506117eb565b6040518082815260200191505060405180910390f35b3480156104a857600080fd5b506104b1611810565b604051808273ffffffffffffffffffffffffffffffffffffffff1673ffffffffffffffffffffffffffffffffffffffff16815260200191505060405180910390f35b3480156104ff57600080fd5b506105426004803603602081101561051657600080fd5b81019080803573ffffffffffffffffffffffffffffffffffffffff169060200190929190505050611836565b6040518082815260200191505060405180910390f35b34801561056457600080fd5b5061056d61184e565b604051808273ffffffffffffffffffffffffffffffffffffffff1673ffffffffffffffffffffffffffffffffffffffff16815260200191505060405180910390f35b3480156105bb57600080fd5b506105c4611877565b604051808273ffffffffffffffffffffffffffffffffffffffff1673ffffffffffffffffffffffffffffffffffffffff16815260200191505060405180910390f35b34801561061257600080fd5b5061065f6004803603604081101561062957600080fd5b81019080803573ffffffffffffffffffffffffffffffffffffffff1690602001909291908035906020019092919050505061189c565b005b6106696119e1565b005b34801561067757600080fd5b506106a46004803603602081101561068e57600080fd5b8101908080359060200190929190505050611c51565b604051808215151515815260200191505060405180910390f35b3480156106ca57600080fd5b506106f7600480360360208110156106e157600080fd5b8101908080359060200190929190505050611c71565b604051808215151515815260200191505060405180910390f35b34801561071d57600080fd5b50610846600480360361024081101561073557600080fd5b810190808061010001906008806020026040519081016040528092919082600860200280828437600081840152601f19601f820116905080830192505050505050919291929080608001906004806020026040519081016040528092919082600460200280828437600081840152601f19601f820116905080830192505050505050919291929080604001906002806020026040519081016040528092919082600260200280828437600081840152601f19601f820116905080830192505050505050919291929080608001906004806020026040519081016040528092919082600460200280828437600081840152601f19601f8201169050808301925050505050509192919290505050611d44565b005b34801561085457600080fd5b5061085d613099565b6040518082815260200191505060405180910390f35b34801561087f57600080fd5b506108cc6004803603604081101561089657600080fd5b81019080803573ffffffffffffffffffffffffffffffffffffffff1690602001909291908035906020019092919050505061309f565b005b3480156108da57600080fd5b50610907600480360360208110156108f157600080fd5b81019080803590602001909291905050506134f0565b6040518082815260200191505060405180910390f35b34801561092957600080fd5b5061098c6004803603604081101561094057600080fd5b81019080803573ffffffffffffffffffffffffffffffffffffffff169060200190929190803573ffffffffffffffffffffffffffffffffffffffff169060200190929190505050613508565b6040518082815260200191505060405180910390f35b6000809054906101000a900473ffffffffffffffffffffffffffffffffffffffff1673ffffffffffffffffffffffffffffffffffffffff163373ffffffffffffffffffffffffffffffffffffffff16146109f857fe5b8073ffffffffffffffffffffffffffffffffffffffff166000809054906101000a900473ffffffffffffffffffffffffffffffffffffffff1673ffffffffffffffffffffffffffffffffffffffff167fcbf985117192c8f614a58aaf97226bb80a754772f5f6edf06f87c675f2e6c66360405160405180910390a3806000806101000a81548173ffffffffffffffffffffffffffffffffffffffff021916908373ffffffffffffffffffffffffffffffffffffffff16021790555050565b6000809054906101000a900473ffffffffffffffffffffffffffffffffffffffff1673ffffffffffffffffffffffffffffffffffffffff163373ffffffffffffffffffffffffffffffffffffffff1614158015610b5d5750600360003373ffffffffffffffffffffffffffffffffffffffff1673ffffffffffffffffffffffffffffffffffffffff16815260200190815260200160002060009054906101000a900460ff16155b15610b6757600080fd5b600030898960001b898960001b604051602001808673ffffffffffffffffffffffffffffffffffffffff1673ffffffffffffffffffffffffffffffffffffffff1660601b81526014018573ffffffffffffffffffffffffffffffffffffffff1673ffffffffffffffffffffffffffffffffffffffff1660601b81526014018481526020018373ffffffffffffffffffffffffffffffffffffffff1673ffffffffffffffffffffffffffffffffffffffff1660601b8152601401828152602001955050505050506040516020818303038152906040528051906020012090506009600082815260200190815260200160002060009054906101000a900460ff1615610c7057600080fd5b60016009600083815260200190815260200160002060006101000a81548160ff0219169083151502179055508673ffffffffffffffffffffffffffffffffffffffff1660018260405160200180807f19457468657265756d205369676e6564204d6573736167653a0a333200000000815250601c018281526020019150506040516020818303038152906040528051906020012087878760405160008152602001604052604051808581526020018460ff1660ff1681526020018381526020018281526020019450505050506020604051602081039080840390855afa158015610d5e573d6000803e3d6000fd5b5050506020604051035173ffffffffffffffffffffffffffffffffffffffff1614610d8857600080fd5b66b1a2bc2ec50000821115610da25766b1a2bc2ec5000091505b87600260008b73ffffffffffffffffffffffffffffffffffffffff1673ffffffffffffffffffffffffffffffffffffffff16815260200190815260200160002060008973ffffffffffffffffffffffffffffffffffffffff1673ffffffffffffffffffffffffffffffffffffffff168152602001908152602001600020541015610e2b57600080fd5b610eb1600260008b73ffffffffffffffffffffffffffffffffffffffff1673ffffffffffffffffffffffffffffffffffffffff16815260200190815260200160002060008973ffffffffffffffffffffffffffffffffffffffff1673ffffffffffffffffffffffffffffffffffffffff168152602001908152602001600020548961358f565b600260008b73ffffffffffffffffffffffffffffffffffffffff1673ffffffffffffffffffffffffffffffffffffffff16815260200190815260200160002060008973ffffffffffffffffffffffffffffffffffffffff1673ffffffffffffffffffffffffffffffffffffffff16815260200190815260200160002081905550610ff3600260008b73ffffffffffffffffffffffffffffffffffffffff1673ffffffffffffffffffffffffffffffffffffffff1681526020019081526020016000206000600660009054906101000a900473ffffffffffffffffffffffffffffffffffffffff1673ffffffffffffffffffffffffffffffffffffffff1673ffffffffffffffffffffffffffffffffffffffff16815260200190815260200160002054670de0b6b3a7640000610fe6858c6135a6565b81610fed57fe5b046135d5565b600260008b73ffffffffffffffffffffffffffffffffffffffff1673ffffffffffffffffffffffffffffffffffffffff1681526020019081526020016000206000600660009054906101000a900473ffffffffffffffffffffffffffffffffffffffff1673ffffffffffffffffffffffffffffffffffffffff1673ffffffffffffffffffffffffffffffffffffffff16815260200190815260200160002081905550670de0b6b3a76400006110b283670de0b6b3a7640000038a6135a6565b816110b957fe5b049750600073ffffffffffffffffffffffffffffffffffffffff168973ffffffffffffffffffffffffffffffffffffffff161415611134578673ffffffffffffffffffffffffffffffffffffffff166108fc899081150290604051600060405180830381858888f1935050505061112f57600080fd5b611200565b8873ffffffffffffffffffffffffffffffffffffffff1663a9059cbb888a6040518363ffffffff1660e01b8152600401808373ffffffffffffffffffffffffffffffffffffffff1673ffffffffffffffffffffffffffffffffffffffff16815260200182815260200192505050602060405180830381600087803b1580156111bb57600080fd5b505af11580156111cf573d6000803e3d6000fd5b505050506040513d60208110156111e557600080fd5b81019080805190602001909291905050506111ff57600080fd5b5b43600460008973ffffffffffffffffffffffffffffffffffffffff1673ffffffffffffffffffffffffffffffffffffffff168152602001908152602001600020819055507ff341246adaac6f497bc2a656f546ab9e182111d630394f0c57c710a59a2cb56789888a600260008e73ffffffffffffffffffffffffffffffffffffffff1673ffffffffffffffffffffffffffffffffffffffff16815260200190815260200160002060008c73ffffffffffffffffffffffffffffffffffffffff1673ffffffffffffffffffffffffffffffffffffffff16815260200190815260200160002054604051808573ffffffffffffffffffffffffffffffffffffffff1673ffffffffffffffffffffffffffffffffffffffff1681526020018473ffffffffffffffffffffffffffffffffffffffff1673ffffffffffffffffffffffffffffffffffffffff16815260200183815260200182815260200194505050505060405180910390a1505050505050505050565b60046020528060005260406000206000915090505481565b611410600260008473ffffffffffffffffffffffffffffffffffffffff1673ffffffffffffffffffffffffffffffffffffffff16815260200190815260200160002060003373ffffffffffffffffffffffffffffffffffffffff1673ffffffffffffffffffffffffffffffffffffffff16815260200190815260200160002054826135d5565b600260008473ffffffffffffffffffffffffffffffffffffffff1673ffffffffffffffffffffffffffffffffffffffff16815260200190815260200160002060003373ffffffffffffffffffffffffffffffffffffffff1673ffffffffffffffffffffffffffffffffffffffff1681526020019081526020016000208190555043600460003373ffffffffffffffffffffffffffffffffffffffff1673ffffffffffffffffffffffffffffffffffffffff168152602001908152602001600020819055508173ffffffffffffffffffffffffffffffffffffffff166323b872dd3330846040518463ffffffff1660e01b8152600401808473ffffffffffffffffffffffffffffffffffffffff1673ffffffffffffffffffffffffffffffffffffffff1681526020018373ffffffffffffffffffffffffffffffffffffffff1673ffffffffffffffffffffffffffffffffffffffff1681526020018281526020019350505050602060405180830381600087803b15801561158f57600080fd5b505af11580156115a3573d6000803e3d6000fd5b505050506040513d60208110156115b957600080fd5b81019080805190602001909291905050506115d357600080fd5b7fdcbc1c05240f31ff3ad067ef1ee35ce4997762752e3a095284754544f4c709d7823383600260008773ffffffffffffffffffffffffffffffffffffffff1673ffffffffffffffffffffffffffffffffffffffff16815260200190815260200160002060003373ffffffffffffffffffffffffffffffffffffffff1673ffffffffffffffffffffffffffffffffffffffff16815260200190815260200160002054604051808573ffffffffffffffffffffffffffffffffffffffff1673ffffffffffffffffffffffffffffffffffffffff1681526020018473ffffffffffffffffffffffffffffffffffffffff1673ffffffffffffffffffffffffffffffffffffffff16815260200183815260200182815260200194505050505060405180910390a15050565b60096020528060005260406000206000915054906101000a900460ff1681565b60036020528060005260406000206000915054906101000a900460ff1681565b6000809054906101000a900473ffffffffffffffffffffffffffffffffffffffff1673ffffffffffffffffffffffffffffffffffffffff163373ffffffffffffffffffffffffffffffffffffffff161461179057fe5b80600360008473ffffffffffffffffffffffffffffffffffffffff1673ffffffffffffffffffffffffffffffffffffffff16815260200190815260200160002060006101000a81548160ff0219169083151502179055505050565b6002602052816000526040600020602052806000526040600020600091509150505481565b600660009054906101000a900473ffffffffffffffffffffffffffffffffffffffff1681565b60016020528060005260406000206000915090505481565b60008060009054906101000a900473ffffffffffffffffffffffffffffffffffffffff16905090565b6000809054906101000a900473ffffffffffffffffffffffffffffffffffffffff1681565b6000809054906101000a900473ffffffffffffffffffffffffffffffffffffffff1673ffffffffffffffffffffffffffffffffffffffff163373ffffffffffffffffffffffffffffffffffffffff16141580156119435750600360003373ffffffffffffffffffffffffffffffffffffffff1673ffffffffffffffffffffffffffffffffffffffff16815260200190815260200160002060009054906101000a900460ff16155b1561194d57600080fd5b600160008373ffffffffffffffffffffffffffffffffffffffff1673ffffffffffffffffffffffffffffffffffffffff1681526020019081526020016000205481101561199957600080fd5b80600160008473ffffffffffffffffffffffffffffffffffffffff1673ffffffffffffffffffffffffffffffffffffffff168152602001908152602001600020819055505050565b611a67600260008073ffffffffffffffffffffffffffffffffffffffff1673ffffffffffffffffffffffffffffffffffffffff16815260200190815260200160002060003373ffffffffffffffffffffffffffffffffffffffff1673ffffffffffffffffffffffffffffffffffffffff16815260200190815260200160002054346135d5565b600260008073ffffffffffffffffffffffffffffffffffffffff1673ffffffffffffffffffffffffffffffffffffffff16815260200190815260200160002060003373ffffffffffffffffffffffffffffffffffffffff1673ffffffffffffffffffffffffffffffffffffffff1681526020019081526020016000208190555043600460003373ffffffffffffffffffffffffffffffffffffffff1673ffffffffffffffffffffffffffffffffffffffff168152602001908152602001600020819055507fdcbc1c05240f31ff3ad067ef1ee35ce4997762752e3a095284754544f4c709d760003334600260008073ffffffffffffffffffffffffffffffffffffffff1673ffffffffffffffffffffffffffffffffffffffff16815260200190815260200160002060003373ffffffffffffffffffffffffffffffffffffffff1673ffffffffffffffffffffffffffffffffffffffff16815260200190815260200160002054604051808573ffffffffffffffffffffffffffffffffffffffff1673ffffffffffffffffffffffffffffffffffffffff1681526020018473ffffffffffffffffffffffffffffffffffffffff1673ffffffffffffffffffffffffffffffffffffffff16815260200183815260200182815260200194505050505060405180910390a1565b60086020528060005260406000206000915054906101000a900460ff1681565b60008060009054906101000a900473ffffffffffffffffffffffffffffffffffffffff1673ffffffffffffffffffffffffffffffffffffffff163373ffffffffffffffffffffffffffffffffffffffff1614158015611d1a5750600360003373ffffffffffffffffffffffffffffffffffffffff1673ffffffffffffffffffffffffffffffffffffffff16815260200190815260200160002060009054906101000a900460ff16155b15611d2457600080fd5b620f4240821115611d3457600080fd5b8160078190555060019050919050565b6000809054906101000a900473ffffffffffffffffffffffffffffffffffffffff1673ffffffffffffffffffffffffffffffffffffffff163373ffffffffffffffffffffffffffffffffffffffff1614158015611deb5750600360003373ffffffffffffffffffffffffffffffffffffffff1673ffffffffffffffffffffffffffffffffffffffff16815260200190815260200160002060009054906101000a900460ff16155b15611df557600080fd5b83600360088110611e0257fe5b60200201516001600085600260048110611e1857fe5b602002015173ffffffffffffffffffffffffffffffffffffffff1673ffffffffffffffffffffffffffffffffffffffff168152602001908152602001600020541115611e6357600080fd5b60003084600060048110611e7357fe5b602002015186600060088110611e8557fe5b602002015160001b86600160048110611e9a57fe5b602002015188600160088110611eac57fe5b602002015160001b89600260088110611ec157fe5b602002015160001b8a600360088110611ed657fe5b602002015160001b8a600260048110611eeb57fe5b6020020151604051602001808973ffffffffffffffffffffffffffffffffffffffff1673ffffffffffffffffffffffffffffffffffffffff1660601b81526014018873ffffffffffffffffffffffffffffffffffffffff1673ffffffffffffffffffffffffffffffffffffffff1660601b81526014018781526020018673ffffffffffffffffffffffffffffffffffffffff1673ffffffffffffffffffffffffffffffffffffffff1660601b81526014018581526020018481526020018381526020018273ffffffffffffffffffffffffffffffffffffffff1673ffffffffffffffffffffffffffffffffffffffff1660601b8152601401985050505050505050506040516020818303038152906040528051906020012090508360026004811061201257fe5b602002015173ffffffffffffffffffffffffffffffffffffffff1660018260405160200180807f19457468657265756d205369676e6564204d6573736167653a0a333200000000815250601c01828152602001915050604051602081830303815290604052805190602001208560006002811061208b57fe5b60200201518560006004811061209d57fe5b6020020151866001600481106120af57fe5b602002015160405160008152602001604052604051808581526020018460ff1660ff1681526020018381526020018281526020019450505050506020604051602081039080840390855afa15801561210b573d6000803e3d6000fd5b5050506020604051035173ffffffffffffffffffffffffffffffffffffffff161461213557600080fd5b6000818660046008811061214557fe5b602002015160001b8660036004811061215a57fe5b60200201518860056008811061216c57fe5b602002015160001b604051602001808581526020018481526020018373ffffffffffffffffffffffffffffffffffffffff1673ffffffffffffffffffffffffffffffffffffffff1660601b8152601401828152602001945050505050604051602081830303815290604052805190602001209050846003600481106121ed57fe5b602002015173ffffffffffffffffffffffffffffffffffffffff1660018260405160200180807f19457468657265756d205369676e6564204d6573736167653a0a333200000000815250601c01828152602001915050604051602081830303815290604052805190602001208660016002811061226657fe5b60200201518660026004811061227857fe5b60200201518760036004811061228a57fe5b602002015160405160008152602001604052604051808581526020018460ff1660ff1681526020018381526020018281526020019450505050506020604051602081039080840390855afa1580156122e6573d6000803e3d6000fd5b5050506020604051035173ffffffffffffffffffffffffffffffffffffffff161461231057600080fd5b6008600082815260200190815260200160002060009054906101000a900460ff161561233b57600080fd5b60016008600083815260200190815260200160002060006101000a81548160ff02191690831515021790555067016345785d8a00008660066008811061237d57fe5b602002015111156123a85767016345785d8a00008660066008811061239e57fe5b6020020181815250505b67016345785d8a0000866007600881106123be57fe5b602002015111156123e95767016345785d8a0000866007600881106123df57fe5b6020020181815250505b856000600881106123f657fe5b602002015161242960056000858152602001908152602001600020548860046008811061241f57fe5b60200201516135d5565b111561243457600080fd5b8560046008811061244157fe5b6020020151600260008760006004811061245757fe5b602002015173ffffffffffffffffffffffffffffffffffffffff1673ffffffffffffffffffffffffffffffffffffffff1681526020019081526020016000206000876003600481106124a557fe5b602002015173ffffffffffffffffffffffffffffffffffffffff1673ffffffffffffffffffffffffffffffffffffffff1681526020019081526020016000205410156124f057600080fd5b856000600881106124fd57fe5b602002015161252e8760016008811061251257fe5b60200201518860046008811061252457fe5b60200201516135a6565b8161253557fe5b04600260008760016004811061254757fe5b602002015173ffffffffffffffffffffffffffffffffffffffff1673ffffffffffffffffffffffffffffffffffffffff16815260200190815260200160002060008760026004811061259557fe5b602002015173ffffffffffffffffffffffffffffffffffffffff1673ffffffffffffffffffffffffffffffffffffffff1681526020019081526020016000205410156125e057600080fd5b61269960026000876000600481106125f457fe5b602002015173ffffffffffffffffffffffffffffffffffffffff1673ffffffffffffffffffffffffffffffffffffffff16815260200190815260200160002060008760036004811061264257fe5b602002015173ffffffffffffffffffffffffffffffffffffffff1673ffffffffffffffffffffffffffffffffffffffff168152602001908152602001600020548760046008811061268f57fe5b602002015161358f565b60026000876000600481106126aa57fe5b602002015173ffffffffffffffffffffffffffffffffffffffff1673ffffffffffffffffffffffffffffffffffffffff1681526020019081526020016000206000876003600481106126f857fe5b602002015173ffffffffffffffffffffffffffffffffffffffff1673ffffffffffffffffffffffffffffffffffffffff16815260200190815260200160002081905550612829600260008760006004811061274f57fe5b602002015173ffffffffffffffffffffffffffffffffffffffff1673ffffffffffffffffffffffffffffffffffffffff16815260200190815260200160002060008760026004811061279d57fe5b602002015173ffffffffffffffffffffffffffffffffffffffff1673ffffffffffffffffffffffffffffffffffffffff16815260200190815260200160002054670de0b6b3a764000061281c896004600881106127f657fe5b60200201518a60066008811061280857fe5b6020020151670de0b6b3a7640000036135a6565b8161282357fe5b046135d5565b600260008760006004811061283a57fe5b602002015173ffffffffffffffffffffffffffffffffffffffff1673ffffffffffffffffffffffffffffffffffffffff16815260200190815260200160002060008760026004811061288857fe5b602002015173ffffffffffffffffffffffffffffffffffffffff1673ffffffffffffffffffffffffffffffffffffffff168152602001908152602001600020819055506129c060026000876000600481106128df57fe5b602002015173ffffffffffffffffffffffffffffffffffffffff1673ffffffffffffffffffffffffffffffffffffffff1681526020019081526020016000206000600660009054906101000a900473ffffffffffffffffffffffffffffffffffffffff1673ffffffffffffffffffffffffffffffffffffffff1673ffffffffffffffffffffffffffffffffffffffff16815260200190815260200160002054670de0b6b3a76400006129b38960046008811061299757fe5b60200201518a6006600881106129a957fe5b60200201516135a6565b816129ba57fe5b046135d5565b60026000876000600481106129d157fe5b602002015173ffffffffffffffffffffffffffffffffffffffff1673ffffffffffffffffffffffffffffffffffffffff1681526020019081526020016000206000600660009054906101000a900473ffffffffffffffffffffffffffffffffffffffff1673ffffffffffffffffffffffffffffffffffffffff1673ffffffffffffffffffffffffffffffffffffffff16815260200190815260200160002081905550612b606002600087600160048110612a8757fe5b602002015173ffffffffffffffffffffffffffffffffffffffff1673ffffffffffffffffffffffffffffffffffffffff168152602001908152602001600020600087600260048110612ad557fe5b602002015173ffffffffffffffffffffffffffffffffffffffff1673ffffffffffffffffffffffffffffffffffffffff1681526020019081526020016000205487600060088110612b2257fe5b6020020151612b5389600160088110612b3757fe5b60200201518a600460088110612b4957fe5b60200201516135a6565b81612b5a57fe5b0461358f565b6002600087600160048110612b7157fe5b602002015173ffffffffffffffffffffffffffffffffffffffff1673ffffffffffffffffffffffffffffffffffffffff168152602001908152602001600020600087600260048110612bbf57fe5b602002015173ffffffffffffffffffffffffffffffffffffffff1673ffffffffffffffffffffffffffffffffffffffff16815260200190815260200160002081905550612d246002600087600160048110612c1657fe5b602002015173ffffffffffffffffffffffffffffffffffffffff1673ffffffffffffffffffffffffffffffffffffffff168152602001908152602001600020600087600360048110612c6457fe5b602002015173ffffffffffffffffffffffffffffffffffffffff1673ffffffffffffffffffffffffffffffffffffffff16815260200190815260200160002054670de0b6b3a764000088600060088110612cba57fe5b6020020151612d0f612cf88b600760088110612cd257fe5b6020020151670de0b6b3a7640000038c600160088110612cee57fe5b60200201516135a6565b8b600460088110612d0557fe5b60200201516135a6565b81612d1657fe5b0481612d1e57fe5b046135d5565b6002600087600160048110612d3557fe5b602002015173ffffffffffffffffffffffffffffffffffffffff1673ffffffffffffffffffffffffffffffffffffffff168152602001908152602001600020600087600360048110612d8357fe5b602002015173ffffffffffffffffffffffffffffffffffffffff1673ffffffffffffffffffffffffffffffffffffffff16815260200190815260200160002081905550612eef6002600087600160048110612dda57fe5b602002015173ffffffffffffffffffffffffffffffffffffffff1673ffffffffffffffffffffffffffffffffffffffff1681526020019081526020016000206000600660009054906101000a900473ffffffffffffffffffffffffffffffffffffffff1673ffffffffffffffffffffffffffffffffffffffff1673ffffffffffffffffffffffffffffffffffffffff16815260200190815260200160002054670de0b6b3a764000088600060088110612e8f57fe5b6020020151612eda612ec38b600760088110612ea757fe5b60200201518c600160088110612eb957fe5b60200201516135a6565b8b600460088110612ed057fe5b60200201516135a6565b81612ee157fe5b0481612ee957fe5b046135d5565b6002600087600160048110612f0057fe5b602002015173ffffffffffffffffffffffffffffffffffffffff1673ffffffffffffffffffffffffffffffffffffffff1681526020019081526020016000206000600660009054906101000a900473ffffffffffffffffffffffffffffffffffffffff1673ffffffffffffffffffffffffffffffffffffffff1673ffffffffffffffffffffffffffffffffffffffff16815260200190815260200160002081905550612fd0600560008481526020019081526020016000205487600460088110612fc657fe5b60200201516135d5565b6005600084815260200190815260200160002081905550436004600087600260048110612ff957fe5b602002015173ffffffffffffffffffffffffffffffffffffffff1673ffffffffffffffffffffffffffffffffffffffff1681526020019081526020016000208190555043600460008760036004811061304e57fe5b602002015173ffffffffffffffffffffffffffffffffffffffff1673ffffffffffffffffffffffffffffffffffffffff16815260200190815260200160002081905550505050505050565b60075481565b6007546130eb43600460003373ffffffffffffffffffffffffffffffffffffffff1673ffffffffffffffffffffffffffffffffffffffff1681526020019081526020016000205461358f565b10156130f657600080fd5b80600260008473ffffffffffffffffffffffffffffffffffffffff1673ffffffffffffffffffffffffffffffffffffffff16815260200190815260200160002060003373ffffffffffffffffffffffffffffffffffffffff1673ffffffffffffffffffffffffffffffffffffffff16815260200190815260200160002054101561317f57600080fd5b613205600260008473ffffffffffffffffffffffffffffffffffffffff1673ffffffffffffffffffffffffffffffffffffffff16815260200190815260200160002060003373ffffffffffffffffffffffffffffffffffffffff1673ffffffffffffffffffffffffffffffffffffffff168152602001908152602001600020548261358f565b600260008473ffffffffffffffffffffffffffffffffffffffff1673ffffffffffffffffffffffffffffffffffffffff16815260200190815260200160002060003373ffffffffffffffffffffffffffffffffffffffff1673ffffffffffffffffffffffffffffffffffffffff16815260200190815260200160002081905550600073ffffffffffffffffffffffffffffffffffffffff168273ffffffffffffffffffffffffffffffffffffffff1614156132fd573373ffffffffffffffffffffffffffffffffffffffff166108fc829081150290604051600060405180830381858888f193505050506132f857600080fd5b6133c9565b8173ffffffffffffffffffffffffffffffffffffffff1663a9059cbb33836040518363ffffffff1660e01b8152600401808373ffffffffffffffffffffffffffffffffffffffff1673ffffffffffffffffffffffffffffffffffffffff16815260200182815260200192505050602060405180830381600087803b15801561338457600080fd5b505af1158015613398573d6000803e3d6000fd5b505050506040513d60208110156133ae57600080fd5b81019080805190602001909291905050506133c857600080fd5b5b7ff341246adaac6f497bc2a656f546ab9e182111d630394f0c57c710a59a2cb567823383600260008773ffffffffffffffffffffffffffffffffffffffff1673ffffffffffffffffffffffffffffffffffffffff16815260200190815260200160002060003373ffffffffffffffffffffffffffffffffffffffff1673ffffffffffffffffffffffffffffffffffffffff16815260200190815260200160002054604051808573ffffffffffffffffffffffffffffffffffffffff1673ffffffffffffffffffffffffffffffffffffffff1681526020018473ffffffffffffffffffffffffffffffffffffffff1673ffffffffffffffffffffffffffffffffffffffff16815260200183815260200182815260200194505050505060405180910390a15050565b60056020528060005260406000206000915090505481565b6000600260008473ffffffffffffffffffffffffffffffffffffffff1673ffffffffffffffffffffffffffffffffffffffff16815260200190815260200160002060008373ffffffffffffffffffffffffffffffffffffffff1673ffffffffffffffffffffffffffffffffffffffff16815260200190815260200160002054905092915050565b60008282111561359b57fe5b818303905092915050565b600080828402905060008414806135c55750828482816135c257fe5b04145b6135cb57fe5b8091505092915050565b60008082840190508381101580156135ed5750828110155b6135f357fe5b809150509291505056fea265627a7a72315820addb762f878b5d6c48cd3c73b9b2e3b322b4f136b02164d62c07aa64a7bb644764736f6c63430005100032",
  "source": "/**\r\n *Submitted for verification at Etherscan.io on 2017-09-27\r\n*/\r\n\r\npragma solidity ^0.5.0;\r\n\r\ncontract Token {\r\n    bytes32 public standard;\r\n    bytes32 public name;\r\n    bytes32 public symbol;\r\n    uint256 public totalSupply;\r\n    uint8 public decimals;\r\n    bool public allowTransactions;\r\n    mapping (address => uint256) public balanceOf;\r\n    mapping (address => mapping (address => uint256)) public allowance;\r\n    function transfer(address _to, uint256 _value) external returns (bool success);\r\n    function approveAndCall(address _spender, uint256 _value, bytes calldata _extraData) external returns (bool success);\r\n    function approve(address _spender, uint256 _value) external returns (bool success);\r\n    function transferFrom(address _from, address _to, uint256 _value) external returns (bool success);\r\n}\r\n\r\ncontract Exchange {\r\n  function safeMul(uint a, uint b) internal pure returns (uint) {\r\n    uint c = a * b;\r\n    assert(a == 0 || c / a == b);\r\n    return c;\r\n  }\r\n\r\n  function safeSub(uint a, uint b) internal pure returns (uint) {\r\n    assert(b <= a);\r\n    return a - b;\r\n  }\r\n\r\n  function safeAdd(uint a, uint b) internal pure returns (uint) {\r\n    uint c = a + b;\r\n    assert(c>=a && c>=b);\r\n    return c;\r\n  }\r\n  address public owner;\r\n  mapping (address => uint256) public invalidOrder;\r\n  event SetOwner(address indexed previousOwner, address indexed newOwner);\r\n  modifier onlyOwner {\r\n    assert(msg.sender == owner);\r\n    _;\r\n  }\r\n  function setOwner(address newOwner) public onlyOwner {\r\n    emit SetOwner(owner, newOwner);\r\n    owner = newOwner;\r\n  }\r\n  function getOwner() public view returns (address out) {\r\n    return owner;\r\n  }\r\n  function invalidateOrdersBefore(address user, uint256 nonce) public onlyAdmin {\r\n    if (nonce < invalidOrder[user]) revert();\r\n    invalidOrder[user] = nonce;\r\n  }\r\n\r\n  mapping (address => mapping (address => uint256)) public tokens; //mapping of token addresses to mapping of account balances\r\n\r\n  mapping (address => bool) public admins;\r\n  mapping (address => uint256) public lastActiveTransaction;\r\n  mapping (bytes32 => uint256) public orderFills;\r\n  address public feeAccount;\r\n  uint256 public inactivityReleasePeriod;\r\n  mapping (bytes32 => bool) public traded;\r\n  mapping (bytes32 => bool) public withdrawn;\r\n  event Order(address tokenBuy, uint256 amountBuy, address tokenSell, uint256 amountSell, uint256 expires, uint256 nonce, address user, uint8 v, bytes32 r, bytes32 s);\r\n  event Cancel(address tokenBuy, uint256 amountBuy, address tokenSell, uint256 amountSell, uint256 expires, uint256 nonce, address user, uint8 v, bytes32 r, bytes32 s);\r\n  event Trade(address tokenBuy, uint256 amountBuy, address tokenSell, uint256 amountSell, address get, address give);\r\n  event Deposit(address token, address user, uint256 amount, uint256 balance);\r\n  event Withdraw(address token, address user, uint256 amount, uint256 balance);\r\n\r\n  function setInactivityReleasePeriod(uint256 expiry) public onlyAdmin returns (bool success) {\r\n    if (expiry > 1000000) revert();\r\n    inactivityReleasePeriod = expiry;\r\n    return true;\r\n  }\r\n\r\n  constructor(address feeAccount_) public {\r\n    owner = msg.sender;\r\n    feeAccount = feeAccount_;\r\n    inactivityReleasePeriod = 100000;\r\n  }\r\n\r\n  function setAdmin(address admin, bool isAdmin) public onlyOwner {\r\n    admins[admin] = isAdmin;\r\n  }\r\n\r\n  modifier onlyAdmin {\r\n    if (msg.sender != owner && !admins[msg.sender]) revert();\r\n    _;\r\n  }\r\n\r\n  function() external {\r\n    revert();\r\n  }\r\n\r\n  function depositToken(address token, uint256 amount) public {\r\n    tokens[token][msg.sender] = safeAdd(tokens[token][msg.sender], amount);\r\n    lastActiveTransaction[msg.sender] = block.number;\r\n    if (!Token(token).transferFrom(msg.sender, address(this), amount)) revert();\r\n    emit Deposit(token, msg.sender, amount, tokens[token][msg.sender]);\r\n  }\r\n\r\n  function deposit() public payable {\r\n    tokens[address(0)][msg.sender] = safeAdd(tokens[address(0)][msg.sender], msg.value);\r\n    lastActiveTransaction[msg.sender] = block.number;\r\n    emit Deposit(address(0), msg.sender, msg.value, tokens[address(0)][msg.sender]);\r\n  }\r\n\r\n  function withdraw(address token, uint256 amount) public {\r\n    if (safeSub(block.number, lastActiveTransaction[msg.sender]) < inactivityReleasePeriod) revert();\r\n    if (tokens[token][msg.sender] < amount) revert();\r\n    tokens[token][msg.sender] = safeSub(tokens[token][msg.sender], amount);\r\n    if (token == address(0)) {\r\n      if (!msg.sender.send(amount)) revert();\r\n    } else {\r\n      if (!Token(token).transfer(msg.sender, amount)) revert();\r\n    }\r\n    emit Withdraw(token, msg.sender, amount, tokens[token][msg.sender]);\r\n  }\r\n\r\n  function adminWithdraw(address token, uint256 amount, address payable user, uint256 nonce, uint8 v, bytes32 r, bytes32 s, uint256 feeWithdrawal) public onlyAdmin {\r\n    bytes32 hash = keccak256(abi.encodePacked(address(this), token, bytes32(amount), user, bytes32(nonce)));\r\n    if (withdrawn[hash]) revert();\r\n    withdrawn[hash] = true;\r\n    if (ecrecover(keccak256(abi.encodePacked(\"\\x19Ethereum Signed Message:\\n32\", hash)), v, r, s) != user) revert();\r\n    if (feeWithdrawal > 50 finney) feeWithdrawal = 50 finney;\r\n    if (tokens[token][user] < amount) revert();\r\n    tokens[token][user] = safeSub(tokens[token][user], amount);\r\n    tokens[token][feeAccount] = safeAdd(tokens[token][feeAccount], safeMul(feeWithdrawal, amount) / 1 ether);\r\n    amount = safeMul((1 ether - feeWithdrawal), amount) / 1 ether;\r\n    if (token == address(0)) {\r\n      if (!user.send(amount)) revert();\r\n    } else {\r\n      if (!Token(token).transfer(user, amount)) revert();\r\n    }\r\n    lastActiveTransaction[user] = block.number;\r\n    emit Withdraw(token, user, amount, tokens[token][user]);\r\n  }\r\n\r\n  function balanceOf(address token, address user) public view returns (uint256) {\r\n    return tokens[token][user];\r\n  }\r\n\r\n  function trade(uint256[8] memory tradeValues, address[4] memory tradeAddresses, uint8[2] memory v, bytes32[4] memory rs) public onlyAdmin {\r\n    /* amount is in amountBuy terms */\r\n    /* tradeValues\r\n       [0] amountBuy\r\n       [1] amountSell\r\n       [2] expires\r\n       [3] nonce\r\n       [4] amount\r\n       [5] tradeNonce\r\n       [6] feeMake\r\n       [7] feeTake\r\n     tradeAddressses\r\n       [0] tokenBuy\r\n       [1] tokenSell\r\n       [2] maker\r\n       [3] taker\r\n     */\r\n    if (invalidOrder[tradeAddresses[2]] > tradeValues[3]) revert();\r\n    bytes32 orderHash = keccak256(abi.encodePacked(address(this), tradeAddresses[0], bytes32(tradeValues[0]), tradeAddresses[1], bytes32(tradeValues[1]), bytes32(tradeValues[2]), bytes32(tradeValues[3]), tradeAddresses[2]));\r\n    if (ecrecover(keccak256(abi.encodePacked(\"\\x19Ethereum Signed Message:\\n32\", orderHash)), v[0], rs[0], rs[1]) != tradeAddresses[2]) revert();\r\n    bytes32 tradeHash = keccak256(abi.encodePacked(orderHash, bytes32(tradeValues[4]), tradeAddresses[3], bytes32(tradeValues[5]))); \r\n    if (ecrecover(keccak256(abi.encodePacked(\"\\x19Ethereum Signed Message:\\n32\", tradeHash)), v[1], rs[2], rs[3]) != tradeAddresses[3]) revert();\r\n    if (traded[tradeHash]) revert();\r\n    traded[tradeHash] = true;\r\n    if (tradeValues[6] > 100 finney) tradeValues[6] = 100 finney;\r\n    if (tradeValues[7] > 100 finney) tradeValues[7] = 100 finney;\r\n    if (safeAdd(orderFills[orderHash], tradeValues[4]) > tradeValues[0]) revert();\r\n    if (tokens[tradeAddresses[0]][tradeAddresses[3]] < tradeValues[4]) revert();\r\n    if (tokens[tradeAddresses[1]][tradeAddresses[2]] < (safeMul(tradeValues[1], tradeValues[4]) / tradeValues[0])) revert();\r\n    tokens[tradeAddresses[0]][tradeAddresses[3]] = safeSub(tokens[tradeAddresses[0]][tradeAddresses[3]], tradeValues[4]);\r\n    tokens[tradeAddresses[0]][tradeAddresses[2]] = safeAdd(tokens[tradeAddresses[0]][tradeAddresses[2]], safeMul(tradeValues[4], ((1 ether) - tradeValues[6])) / (1 ether));\r\n    tokens[tradeAddresses[0]][feeAccount] = safeAdd(tokens[tradeAddresses[0]][feeAccount], safeMul(tradeValues[4], tradeValues[6]) / (1 ether));\r\n    tokens[tradeAddresses[1]][tradeAddresses[2]] = safeSub(tokens[tradeAddresses[1]][tradeAddresses[2]], safeMul(tradeValues[1], tradeValues[4]) / tradeValues[0]);\r\n    tokens[tradeAddresses[1]][tradeAddresses[3]] = safeAdd(tokens[tradeAddresses[1]][tradeAddresses[3]], safeMul(safeMul(((1 ether) - tradeValues[7]), tradeValues[1]), tradeValues[4]) / tradeValues[0] / (1 ether));\r\n    tokens[tradeAddresses[1]][feeAccount] = safeAdd(tokens[tradeAddresses[1]][feeAccount], safeMul(safeMul(tradeValues[7], tradeValues[1]), tradeValues[4]) / tradeValues[0] / (1 ether));\r\n    orderFills[orderHash] = safeAdd(orderFills[orderHash], tradeValues[4]);\r\n    lastActiveTransaction[tradeAddresses[2]] = block.number;\r\n    lastActiveTransaction[tradeAddresses[3]] = block.number;\r\n  }\r\n}\r\n",
  "sourcePath": "/home/henry/learning/git/ethereum/contracts/IDEX.sol",
  "compiler": {
    "name": "solc",
    "version": "0.5.16+commit.9c3226ce.Emscripten.clang"
  },
  "schemaVersion": "3.1.0",
  "updatedAt": "2020-08-15T14:26:48.336Z",
  "devdoc": {
    "methods": {}
  },
  "userdoc": {
    "methods": {}
  }
}