{
  "contractName": "HybridExchange",
  "abi": [
    {
      "inputs": [
        {
          "internalType": "address",
          "name": "_proxyAddress",
          "type": "address"
        },
        {
          "internalType": "address",
          "name": "hotTokenAddress",
          "type": "address"
        }
      ],
      "payable": false,
      "stateMutability": "nonpayable",
      "type": "constructor"
    },
    {
      "anonymous": false,
      "inputs": [
        {
          "indexed": true,
          "internalType": "bytes32",
          "name": "orderHash",
          "type": "bytes32"
        }
      ],
      "name": "Cancel",
      "type": "event"
    },
    {
      "anonymous": false,
      "inputs": [
        {
          "components": [
            {
              "internalType": "address",
              "name": "baseToken",
              "type": "address"
            },
            {
              "internalType": "address",
              "name": "quoteToken",
              "type": "address"
            },
            {
              "internalType": "address",
              "name": "relayer",
              "type": "address"
            }
          ],
          "indexed": false,
          "internalType": "struct HybridExchange.OrderAddressSet",
          "name": "addressSet",
          "type": "tuple"
        },
        {
          "components": [
            {
              "internalType": "address",
              "name": "maker",
              "type": "address"
            },
            {
              "internalType": "address",
              "name": "taker",
              "type": "address"
            },
            {
              "internalType": "address",
              "name": "buyer",
              "type": "address"
            },
            {
              "internalType": "uint256",
              "name": "makerFee",
              "type": "uint256"
            },
            {
              "internalType": "uint256",
              "name": "makerRebate",
              "type": "uint256"
            },
            {
              "internalType": "uint256",
              "name": "takerFee",
              "type": "uint256"
            },
            {
              "internalType": "uint256",
              "name": "makerGasFee",
              "type": "uint256"
            },
            {
              "internalType": "uint256",
              "name": "takerGasFee",
              "type": "uint256"
            },
            {
              "internalType": "uint256",
              "name": "baseTokenFilledAmount",
              "type": "uint256"
            },
            {
              "internalType": "uint256",
              "name": "quoteTokenFilledAmount",
              "type": "uint256"
            }
          ],
          "indexed": false,
          "internalType": "struct HybridExchange.MatchResult",
          "name": "result",
          "type": "tuple"
        }
      ],
      "name": "Match",
      "type": "event"
    },
    {
      "anonymous": false,
      "inputs": [
        {
          "indexed": true,
          "internalType": "address",
          "name": "previousOwner",
          "type": "address"
        },
        {
          "indexed": true,
          "internalType": "address",
          "name": "newOwner",
          "type": "address"
        }
      ],
      "name": "OwnershipTransferred",
      "type": "event"
    },
    {
      "anonymous": false,
      "inputs": [
        {
          "indexed": true,
          "internalType": "address",
          "name": "relayer",
          "type": "address"
        },
        {
          "indexed": true,
          "internalType": "address",
          "name": "delegate",
          "type": "address"
        }
      ],
      "name": "RelayerApproveDelegate",
      "type": "event"
    },
    {
      "anonymous": false,
      "inputs": [
        {
          "indexed": true,
          "internalType": "address",
          "name": "relayer",
          "type": "address"
        }
      ],
      "name": "RelayerExit",
      "type": "event"
    },
    {
      "anonymous": false,
      "inputs": [
        {
          "indexed": true,
          "internalType": "address",
          "name": "relayer",
          "type": "address"
        }
      ],
      "name": "RelayerJoin",
      "type": "event"
    },
    {
      "anonymous": false,
      "inputs": [
        {
          "indexed": true,
          "internalType": "address",
          "name": "relayer",
          "type": "address"
        },
        {
          "indexed": true,
          "internalType": "address",
          "name": "delegate",
          "type": "address"
        }
      ],
      "name": "RelayerRevokeDelegate",
      "type": "event"
    },
    {
      "constant": true,
      "inputs": [],
      "name": "DISCOUNT_RATE_BASE",
      "outputs": [
        {
          "internalType": "uint256",
          "name": "",
          "type": "uint256"
        }
      ],
      "payable": false,
      "stateMutability": "view",
      "type": "function"
    },
    {
      "constant": true,
      "inputs": [],
      "name": "DOMAIN_SEPARATOR",
      "outputs": [
        {
          "internalType": "bytes32",
          "name": "",
          "type": "bytes32"
        }
      ],
      "payable": false,
      "stateMutability": "view",
      "type": "function"
    },
    {
      "constant": true,
      "inputs": [],
      "name": "EIP712_DOMAIN_TYPEHASH",
      "outputs": [
        {
          "internalType": "bytes32",
          "name": "",
          "type": "bytes32"
        }
      ],
      "payable": false,
      "stateMutability": "view",
      "type": "function"
    },
    {
      "constant": true,
      "inputs": [],
      "name": "EIP712_ORDER_TYPE",
      "outputs": [
        {
          "internalType": "bytes32",
          "name": "",
          "type": "bytes32"
        }
      ],
      "payable": false,
      "stateMutability": "view",
      "type": "function"
    },
    {
      "constant": true,
      "inputs": [],
      "name": "FEE_RATE_BASE",
      "outputs": [
        {
          "internalType": "uint256",
          "name": "",
          "type": "uint256"
        }
      ],
      "payable": false,
      "stateMutability": "view",
      "type": "function"
    },
    {
      "constant": true,
      "inputs": [],
      "name": "REBATE_RATE_BASE",
      "outputs": [
        {
          "internalType": "uint256",
          "name": "",
          "type": "uint256"
        }
      ],
      "payable": false,
      "stateMutability": "view",
      "type": "function"
    },
    {
      "constant": true,
      "inputs": [],
      "name": "SUPPORTED_ORDER_VERSION",
      "outputs": [
        {
          "internalType": "uint256",
          "name": "",
          "type": "uint256"
        }
      ],
      "payable": false,
      "stateMutability": "view",
      "type": "function"
    },
    {
      "constant": false,
      "inputs": [
        {
          "internalType": "address",
          "name": "delegate",
          "type": "address"
        }
      ],
      "name": "approveDelegate",
      "outputs": [],
      "payable": false,
      "stateMutability": "nonpayable",
      "type": "function"
    },
    {
      "constant": true,
      "inputs": [
        {
          "internalType": "address",
          "name": "relayer",
          "type": "address"
        }
      ],
      "name": "canMatchOrdersFrom",
      "outputs": [
        {
          "internalType": "bool",
          "name": "",
          "type": "bool"
        }
      ],
      "payable": false,
      "stateMutability": "view",
      "type": "function"
    },
    {
      "constant": true,
      "inputs": [
        {
          "internalType": "bytes32",
          "name": "",
          "type": "bytes32"
        }
      ],
      "name": "cancelled",
      "outputs": [
        {
          "internalType": "bool",
          "name": "",
          "type": "bool"
        }
      ],
      "payable": false,
      "stateMutability": "view",
      "type": "function"
    },
    {
      "constant": false,
      "inputs": [
        {
          "internalType": "bytes32",
          "name": "newConfig",
          "type": "bytes32"
        }
      ],
      "name": "changeDiscountConfig",
      "outputs": [],
      "payable": false,
      "stateMutability": "nonpayable",
      "type": "function"
    },
    {
      "constant": true,
      "inputs": [],
      "name": "discountConfig",
      "outputs": [
        {
          "internalType": "bytes32",
          "name": "",
          "type": "bytes32"
        }
      ],
      "payable": false,
      "stateMutability": "view",
      "type": "function"
    },
    {
      "constant": false,
      "inputs": [],
      "name": "exitIncentiveSystem",
      "outputs": [],
      "payable": false,
      "stateMutability": "nonpayable",
      "type": "function"
    },
    {
      "constant": true,
      "inputs": [
        {
          "internalType": "bytes32",
          "name": "",
          "type": "bytes32"
        }
      ],
      "name": "filled",
      "outputs": [
        {
          "internalType": "uint256",
          "name": "",
          "type": "uint256"
        }
      ],
      "payable": false,
      "stateMutability": "view",
      "type": "function"
    },
    {
      "constant": false,
      "inputs": [
        {
          "internalType": "address",
          "name": "user",
          "type": "address"
        }
      ],
      "name": "getDiscountedRate",
      "outputs": [
        {
          "internalType": "uint256",
          "name": "result",
          "type": "uint256"
        }
      ],
      "payable": false,
      "stateMutability": "nonpayable",
      "type": "function"
    },
    {
      "constant": true,
      "inputs": [],
      "name": "hotTokenAddress",
      "outputs": [
        {
          "internalType": "address",
          "name": "",
          "type": "address"
        }
      ],
      "payable": false,
      "stateMutability": "view",
      "type": "function"
    },
    {
      "constant": true,
      "inputs": [],
      "name": "isOwner",
      "outputs": [
        {
          "internalType": "bool",
          "name": "",
          "type": "bool"
        }
      ],
      "payable": false,
      "stateMutability": "view",
      "type": "function"
    },
    {
      "constant": true,
      "inputs": [
        {
          "internalType": "address",
          "name": "relayer",
          "type": "address"
        }
      ],
      "name": "isParticipant",
      "outputs": [
        {
          "internalType": "bool",
          "name": "",
          "type": "bool"
        }
      ],
      "payable": false,
      "stateMutability": "view",
      "type": "function"
    },
    {
      "constant": false,
      "inputs": [],
      "name": "joinIncentiveSystem",
      "outputs": [],
      "payable": false,
      "stateMutability": "nonpayable",
      "type": "function"
    },
    {
      "constant": true,
      "inputs": [],
      "name": "owner",
      "outputs": [
        {
          "internalType": "address",
          "name": "",
          "type": "address"
        }
      ],
      "payable": false,
      "stateMutability": "view",
      "type": "function"
    },
    {
      "constant": true,
      "inputs": [],
      "name": "proxyAddress",
      "outputs": [
        {
          "internalType": "address",
          "name": "",
          "type": "address"
        }
      ],
      "payable": false,
      "stateMutability": "view",
      "type": "function"
    },
    {
      "constant": true,
      "inputs": [
        {
          "internalType": "address",
          "name": "",
          "type": "address"
        },
        {
          "internalType": "address",
          "name": "",
          "type": "address"
        }
      ],
      "name": "relayerDelegates",
      "outputs": [
        {
          "internalType": "bool",
          "name": "",
          "type": "bool"
        }
      ],
      "payable": false,
      "stateMutability": "view",
      "type": "function"
    },
    {
      "constant": false,
      "inputs": [],
      "name": "renounceOwnership",
      "outputs": [],
      "payable": false,
      "stateMutability": "nonpayable",
      "type": "function"
    },
    {
      "constant": false,
      "inputs": [
        {
          "internalType": "address",
          "name": "delegate",
          "type": "address"
        }
      ],
      "name": "revokeDelegate",
      "outputs": [],
      "payable": false,
      "stateMutability": "nonpayable",
      "type": "function"
    },
    {
      "constant": false,
      "inputs": [
        {
          "internalType": "address",
          "name": "newOwner",
          "type": "address"
        }
      ],
      "name": "transferOwnership",
      "outputs": [],
      "payable": false,
      "stateMutability": "nonpayable",
      "type": "function"
    },
    {
      "constant": false,
      "inputs": [
        {
          "components": [
            {
              "internalType": "address",
              "name": "trader",
              "type": "address"
            },
            {
              "internalType": "uint256",
              "name": "baseTokenAmount",
              "type": "uint256"
            },
            {
              "internalType": "uint256",
              "name": "quoteTokenAmount",
              "type": "uint256"
            },
            {
              "internalType": "uint256",
              "name": "gasTokenAmount",
              "type": "uint256"
            },
            {
              "internalType": "bytes32",
              "name": "data",
              "type": "bytes32"
            },
            {
              "components": [
                {
                  "internalType": "bytes32",
                  "name": "config",
                  "type": "bytes32"
                },
                {
                  "internalType": "bytes32",
                  "name": "r",
                  "type": "bytes32"
                },
                {
                  "internalType": "bytes32",
                  "name": "s",
                  "type": "bytes32"
                }
              ],
              "internalType": "struct LibSignature.OrderSignature",
              "name": "signature",
              "type": "tuple"
            }
          ],
          "internalType": "struct HybridExchange.OrderParam",
          "name": "takerOrderParam",
          "type": "tuple"
        },
        {
          "components": [
            {
              "internalType": "address",
              "name": "trader",
              "type": "address"
            },
            {
              "internalType": "uint256",
              "name": "baseTokenAmount",
              "type": "uint256"
            },
            {
              "internalType": "uint256",
              "name": "quoteTokenAmount",
              "type": "uint256"
            },
            {
              "internalType": "uint256",
              "name": "gasTokenAmount",
              "type": "uint256"
            },
            {
              "internalType": "bytes32",
              "name": "data",
              "type": "bytes32"
            },
            {
              "components": [
                {
                  "internalType": "bytes32",
                  "name": "config",
                  "type": "bytes32"
                },
                {
                  "internalType": "bytes32",
                  "name": "r",
                  "type": "bytes32"
                },
                {
                  "internalType": "bytes32",
                  "name": "s",
                  "type": "bytes32"
                }
              ],
              "internalType": "struct LibSignature.OrderSignature",
              "name": "signature",
              "type": "tuple"
            }
          ],
          "internalType": "struct HybridExchange.OrderParam[]",
          "name": "makerOrderParams",
          "type": "tuple[]"
        },
        {
          "internalType": "uint256[]",
          "name": "baseTokenFilledAmounts",
          "type": "uint256[]"
        },
        {
          "components": [
            {
              "internalType": "address",
              "name": "baseToken",
              "type": "address"
            },
            {
              "internalType": "address",
              "name": "quoteToken",
              "type": "address"
            },
            {
              "internalType": "address",
              "name": "relayer",
              "type": "address"
            }
          ],
          "internalType": "struct HybridExchange.OrderAddressSet",
          "name": "orderAddressSet",
          "type": "tuple"
        }
      ],
      "name": "matchOrders",
      "outputs": [],
      "payable": false,
      "stateMutability": "nonpayable",
      "type": "function"
    },
    {
      "constant": false,
      "inputs": [
        {
          "components": [
            {
              "internalType": "address",
              "name": "trader",
              "type": "address"
            },
            {
              "internalType": "address",
              "name": "relayer",
              "type": "address"
            },
            {
              "internalType": "address",
              "name": "baseToken",
              "type": "address"
            },
            {
              "internalType": "address",
              "name": "quoteToken",
              "type": "address"
            },
            {
              "internalType": "uint256",
              "name": "baseTokenAmount",
              "type": "uint256"
            },
            {
              "internalType": "uint256",
              "name": "quoteTokenAmount",
              "type": "uint256"
            },
            {
              "internalType": "uint256",
              "name": "gasTokenAmount",
              "type": "uint256"
            },
            {
              "internalType": "bytes32",
              "name": "data",
              "type": "bytes32"
            }
          ],
          "internalType": "struct LibOrder.Order",
          "name": "order",
          "type": "tuple"
        }
      ],
      "name": "cancelOrder",
      "outputs": [],
      "payable": false,
      "stateMutability": "nonpayable",
      "type": "function"
    }
  ],
  "bytecode": "0x60806040527f043c000027106400004e205a000075305000009c40460000000000000000000060001b6005553480156200003857600080fd5b506040516200400f3803806200400f83398181016040526200005e919081019062000252565b80604051602001620000709062000320565b604051602081830303815290604052805190602001206040518060400160405280600e81526020017f487964726f2050726f746f636f6c00000000000000000000000000000000000081525080519060200120604051602001620000d6929190620002f0565b6040516020818303038152906040528051906020012060008190555033600360006101000a81548173ffffffffffffffffffffffffffffffffffffffff021916908373ffffffffffffffffffffffffffffffffffffffff160217905550600360009054906101000a900473ffffffffffffffffffffffffffffffffffffffff1673ffffffffffffffffffffffffffffffffffffffff16600073ffffffffffffffffffffffffffffffffffffffff167f8be0079c531659141344cd1fd0a4f28419497f9722a3daafe3b4186f6b6457e060405160405180910390a380600460006101000a81548173ffffffffffffffffffffffffffffffffffffffff021916908373ffffffffffffffffffffffffffffffffffffffff1602179055505081600660006101000a81548173ffffffffffffffffffffffffffffffffffffffff021916908373ffffffffffffffffffffffffffffffffffffffff1602179055505050620003a4565b6000815190506200024c816200038a565b92915050565b600080604083850312156200026657600080fd5b600062000276858286016200023b565b925050602062000289858286016200023b565b9150509250929050565b620002a8620002a28262000356565b62000380565b82525050565b6000620002bd60198362000337565b91507f454950373132446f6d61696e28737472696e67206e616d6529000000000000006000830152601982019050919050565b6000620002fe828562000293565b60208201915062000310828462000293565b6020820191508190509392505050565b60006200032d82620002ae565b9150819050919050565b600081905092915050565b60006200034f8262000360565b9050919050565b6000819050919050565b600073ffffffffffffffffffffffffffffffffffffffff82169050919050565b6000819050919050565b620003958162000342565b8114620003a157600080fd5b50565b613c5b80620003b46000396000f3fe608060405234801561001057600080fd5b50600436106101a95760003560e01c806363aaf8ec116100f9578063b6b3618e11610097578063c7977be711610071578063c7977be714610488578063cdfcc984146104a6578063f2fde38b146104c4578063fa352c00146104e0576101a9565b8063b6b3618e14610444578063b875bdf114610460578063c1e31de91461046a576101a9565b8063884dad2e116100d3578063884dad2e146103bc5780638da5cb5b146103d85780638f32d59b146103f6578063929066f514610414576101a9565b806363aaf8ec14610376578063715018a6146103945780637add89fb1461039e576101a9565b80633560c5cd116101665780633e5893be116101405780633e5893be146102da5780634376abf11461030a5780635373a1911461033a57806361c3efb114610358576101a9565b80633560c5cd146102945780633644e5151461029e57806337e60751146102bc576101a9565b806306df453e146101ae578063156066e4146101ca57806323f5c02d146101e6578063288cdc91146102045780632ac126221461023457806331d4844714610264575b600080fd5b6101c860048036036101c3919081019061306d565b6104fc565b005b6101e460048036036101df91908101906130d2565b6105ed565b005b6101ee61063e565b6040516101fb9190613822565b60405180910390f35b61021e600480360361021991908101906130d2565b610664565b60405161022b9190613a44565b60405180910390f35b61024e600480360361024991908101906130d2565b61067c565b60405161025b919061383d565b60405180910390f35b61027e60048036036102799190810190613096565b61069c565b60405161028b919061383d565b60405180910390f35b61029c6106cb565b005b6102a6610768565b6040516102b39190613858565b60405180910390f35b6102c461076e565b6040516102d19190613858565b60405180910390f35b6102f460048036036102ef919081019061306d565b610774565b604051610301919061383d565b60405180910390f35b610324600480360361031f919081019061306d565b610844565b6040516103319190613a44565b60405180910390f35b610342610960565b60405161034f9190613858565b60405180910390f35b610360610988565b60405161036d9190613a44565b60405180910390f35b61037e61098f565b60405161038b9190613a44565b60405180910390f35b61039c610994565b005b6103a6610a9c565b6040516103b39190613a44565b60405180910390f35b6103d660048036036103d191908101906130fb565b610aa1565b005b6103e0610e49565b6040516103ed9190613822565b60405180910390f35b6103fe610e73565b60405161040b919061383d565b60405180910390f35b61042e6004803603610429919081019061306d565b610ecb565b60405161043b919061383d565b60405180910390f35b61045e60048036036104599190810190613192565b610f22565b005b610468611037565b005b6104726110cb565b60405161047f9190613a44565b60405180910390f35b6104906110d0565b60405161049d9190613858565b60405180910390f35b6104ae6110f8565b6040516104bb9190613822565b60405180910390f35b6104de60048036036104d9919081019061306d565b61111e565b005b6104fa60048036036104f5919081019061306d565b611295565b005b60018060003373ffffffffffffffffffffffffffffffffffffffff1673ffffffffffffffffffffffffffffffffffffffff16815260200190815260200160002060008373ffffffffffffffffffffffffffffffffffffffff1673ffffffffffffffffffffffffffffffffffffffff16815260200190815260200160002060006101000a81548160ff0219169083151502179055508073ffffffffffffffffffffffffffffffffffffffff163373ffffffffffffffffffffffffffffffffffffffff167f7fa92f6e23fcdb0b7a7001ea137560a8ebee9b8302d16e3b37c64ae7116b69ad60405160405180910390a350565b6105f5610e73565b610634576040517f08c379a000000000000000000000000000000000000000000000000000000000815260040161062b9061399a565b60405180910390fd5b8060058190555050565b600660009054906101000a900473ffffffffffffffffffffffffffffffffffffffff1681565b60076020528060005260406000206000915090505481565b60086020528060005260406000206000915054906101000a900460ff1681565b60016020528160005260406000206020528060005260406000206000915091509054906101000a900460ff1681565b6001600260003373ffffffffffffffffffffffffffffffffffffffff1673ffffffffffffffffffffffffffffffffffffffff16815260200190815260200160002060006101000a81548160ff0219169083151502179055503373ffffffffffffffffffffffffffffffffffffffff167f9bdfcd96a99ab6dad403b4ef4562bb3471fdeaab5e699160abf7c3f2cbe6680560405160405180910390a2565b60005481565b60055481565b60008173ffffffffffffffffffffffffffffffffffffffff163373ffffffffffffffffffffffffffffffffffffffff16148061083d575060011515600160008473ffffffffffffffffffffffffffffffffffffffff1673ffffffffffffffffffffffffffffffffffffffff16815260200190815260200160002060003373ffffffffffffffffffffffffffffffffffffffff1673ffffffffffffffffffffffffffffffffffffffff16815260200190815260200160002060009054906101000a900460ff161515145b9050919050565b60008061085083611387565b9050600081141561086557606491505061095b565b6000600554905060008160f81c60ff1690506000610894670de0b6b3a76400008561140090919063ffffffff16565b935060008090505b828110156108ee576008600582026002010284901b60e01c63ffffffff169150818510156108e1576008600460058302600201010284901b60f81c60ff1695506108ee565b808060010191505061089c565b506000851415610912578260016020811061090557fe5b1a60f81b60f81c60ff1694505b6064851115610956576040517f08c379a000000000000000000000000000000000000000000000000000000000815260040161094d906138da565b60405180910390fd5b505050505b919050565b60405160200161096f906137f8565b6040516020818303038152906040528051906020012081565b620186a081565b606481565b61099c610e73565b6109db576040517f08c379a00000000000000000000000000000000000000000000000000000000081526004016109d29061399a565b60405180910390fd5b600073ffffffffffffffffffffffffffffffffffffffff16600360009054906101000a900473ffffffffffffffffffffffffffffffffffffffff1673ffffffffffffffffffffffffffffffffffffffff167f8be0079c531659141344cd1fd0a4f28419497f9722a3daafe3b4186f6b6457e060405160405180910390a36000600360006101000a81548173ffffffffffffffffffffffffffffffffffffffff021916908373ffffffffffffffffffffffffffffffffffffffff160217905550565b606481565b610aae8160400151610774565b6040518060400160405280600e81526020017f494e56414c49445f53454e44455200000000000000000000000000000000000081525090610b25576040517f08c379a0000000000000000000000000000000000000000000000000000000008152600401610b1c91906138b8565b60405180910390fd5b50610b33846080015161145c565b156040518060400160405280602081526020017f4d414b45525f4f4e4c595f4f524445525f43414e4e4f545f42455f54414b455281525090610bab576040517f08c379a0000000000000000000000000000000000000000000000000000000008152600401610ba291906138b8565b60405180910390fd5b506000610bbb8260400151610ecb565b90506000610bc9868361147f565b9050610bd3612a7f565b610bdd87856114a9565b905060608651604051908082528060200260200182016040528015610c1c57816020015b610c09612a9c565b815260200190600190039081610c015790505b50905060008090505b8751811015610e1357610c4e888281518110610c3d57fe5b60200260200101516080015161178f565b15604051806060016040528060238152602001613bf66023913990610ca9576040517f08c379a0000000000000000000000000000000000000000000000000000000008152600401610ca091906138b8565b60405180910390fd5b50610cca888281518110610cb957fe5b6020026020010151608001516117b2565b1515610cd98a608001516117b2565b151514156040518060400160405280600c81526020017f494e56414c49445f53494445000000000000000000000000000000000000000081525090610d54576040517f08c379a0000000000000000000000000000000000000000000000000000000008152600401610d4b91906138b8565b60405180910390fd5b50610d7289898381518110610d6557fe5b60200260200101516117d5565b610d7a612a7f565b610d97898381518110610d8957fe5b6020026020010151886114a9565b9050610dce8a858b8581518110610daa57fe5b6020026020010151848c8781518110610dbf57fe5b60200260200101518a8c6118b0565b838381518110610dda57fe5b60200260200101819052508060200151600760008360000151815260200190815260200160002081905550508080600101915050610c25565b508160200151600760008460000151815260200190815260200160002081905550610e3f818987611d91565b5050505050505050565b6000600360009054906101000a900473ffffffffffffffffffffffffffffffffffffffff16905090565b6000600360009054906101000a900473ffffffffffffffffffffffffffffffffffffffff1673ffffffffffffffffffffffffffffffffffffffff163373ffffffffffffffffffffffffffffffffffffffff1614905090565b6000600260008373ffffffffffffffffffffffffffffffffffffffff1673ffffffffffffffffffffffffffffffffffffffff16815260200190815260200160002060009054906101000a900460ff16159050919050565b3373ffffffffffffffffffffffffffffffffffffffff16816000015173ffffffffffffffffffffffffffffffffffffffff16146040518060400160405280600e81526020017f494e56414c49445f54524144455200000000000000000000000000000000000081525090610fcc576040517f08c379a0000000000000000000000000000000000000000000000000000000008152600401610fc391906138b8565b60405180910390fd5b506000610fd882611dc2565b905060016008600083815260200190815260200160002060006101000a81548160ff021916908315150217905550807fe8d9861dbc9c663ed3accd261bbe2fe01e0d3d9e5f51fa38523b265c7757a93a60405160405180910390a25050565b600260003373ffffffffffffffffffffffffffffffffffffffff1673ffffffffffffffffffffffffffffffffffffffff16815260200190815260200160002060006101000a81549060ff02191690553373ffffffffffffffffffffffffffffffffffffffff167fc3dd8edec722273de2ffd31b47b4f106689ae891ac1bfddf7ae6190589ab0f6760405160405180910390a2565b600281565b6040516020016110df9061380d565b6040516020818303038152906040528051906020012081565b600460009054906101000a900473ffffffffffffffffffffffffffffffffffffffff1681565b611126610e73565b611165576040517f08c379a000000000000000000000000000000000000000000000000000000000815260040161115c9061399a565b60405180910390fd5b600073ffffffffffffffffffffffffffffffffffffffff168173ffffffffffffffffffffffffffffffffffffffff1614156111d5576040517f08c379a00000000000000000000000000000000000000000000000000000000081526004016111cc9061397a565b60405180910390fd5b8073ffffffffffffffffffffffffffffffffffffffff16600360009054906101000a900473ffffffffffffffffffffffffffffffffffffffff1673ffffffffffffffffffffffffffffffffffffffff167f8be0079c531659141344cd1fd0a4f28419497f9722a3daafe3b4186f6b6457e060405160405180910390a380600360006101000a81548173ffffffffffffffffffffffffffffffffffffffff021916908373ffffffffffffffffffffffffffffffffffffffff16021790555050565b6000600160003373ffffffffffffffffffffffffffffffffffffffff1673ffffffffffffffffffffffffffffffffffffffff16815260200190815260200160002060008373ffffffffffffffffffffffffffffffffffffffff1673ffffffffffffffffffffffffffffffffffffffff16815260200190815260200160002060006101000a81548160ff0219169083151502179055508073ffffffffffffffffffffffffffffffffffffffff163373ffffffffffffffffffffffffffffffffffffffff167fa6568d7ca1ae4c87043ca12f90308b8ef94330ee3a047c2101e1a40812d26c9860405160405180910390a350565b600080600460009054906101000a900473ffffffffffffffffffffffffffffffffffffffff1690506000516004517f70a082310000000000000000000000000000000000000000000000000000000060005284600452602060006024600080875af1935060005193508160005280600452505050919050565b6000808211611444576040517f08c379a000000000000000000000000000000000000000000000000000000000815260040161143b9061391a565b60405180910390fd5b600082848161144f57fe5b0490508091505092915050565b600060018260166020811061146d57fe5b1a60f81b60f81c60ff16149050919050565b60008061148f8460800151611ddf565b90506114a084600001518285611df4565b91505092915050565b6114b1612a7f565b60026114c08460800151611e3c565b146040518060400160405280601b81526020017f4f524445525f56455253494f4e5f4e4f545f535550504f52544544000000000081525090611538576040517f08c379a000000000000000000000000000000000000000000000000000000000815260040161152f91906138b8565b60405180910390fd5b50611541612b31565b61154b8484611e4c565b905061155681611dc2565b82600001818152505060076000836000015181526020019081526020016000205482602001818152505060006002600381111561158f57fe5b905061159e8260e00151611f82565b1580156115b357508160800151836020015110155b156115cb576003808111156115c457fe5b9050611668565b6115d88260e00151611f82565b80156115ec57508160a00151836020015110155b15611604576003808111156115fd57fe5b9050611667565b6116118260e00151611fa6565b421061162b576000600381111561162457fe5b9050611666565b600860008460000151815260200190815260200160002060009054906101000a900460ff1615611665576001600381111561166257fe5b90505b5b5b5b6002600381111561167557fe5b60ff168160ff16146040518060400160405280601581526020017f4f524445525f49535f4e4f545f46494c4c41424c450000000000000000000000815250906116f4576040517f08c379a00000000000000000000000000000000000000000000000000000000081526004016116eb91906138b8565b60405180910390fd5b5061170c836000015186600001518760a00151611fbe565b6040518060400160405280601781526020017f494e56414c49445f4f524445525f5349474e415455524500000000000000000081525090611783576040517f08c379a000000000000000000000000000000000000000000000000000000000815260040161177a91906138b8565b60405180910390fd5b50829250505092915050565b60006001826002602081106117a057fe5b1a60f81b60f81c60ff16149050919050565b60006001826001602081106117c357fe5b1a60f81b60f81c60ff16149050919050565b60006117f28260200151846040015161218490919063ffffffff16565b905060006118118360400151856020015161218490919063ffffffff16565b905061182084608001516117b2565b61182d5780821015611832565b808211155b6040518060400160405280600d81526020017f494e56414c49445f4d4154434800000000000000000000000000000000000000815250906118a9576040517f08c379a00000000000000000000000000000000000000000000000000000000081526004016118a091906138b8565b60405180910390fd5b5050505050565b6118b8612bd1565b83816101000181815250506118cd86856121f4565b816101200181815250506000876020015114156118f35787606001518160e00181815250505b60008560200151141561190f5785606001518160c00181815250505b61191c8860800151611f82565b6119ce5761193c816101000151886020015161221190919063ffffffff16565b8760200181815250508760200151876020015111156040518060400160405280601681526020017f54414b45525f4f524445525f4f5645525f4d4154434800000000000000000000815250906119c8576040517f08c379a00000000000000000000000000000000000000000000000000000000081526004016119bf91906138b8565b60405180910390fd5b50611a78565b6119ea816101200151886020015161221190919063ffffffff16565b8760200181815250508760400151876020015111156040518060400160405280601681526020017f54414b45525f4f524445525f4f5645525f4d415443480000000000000000000081525090611a76576040517f08c379a0000000000000000000000000000000000000000000000000000000008152600401611a6d91906138b8565b60405180910390fd5b505b611a94816101000151866020015161221190919063ffffffff16565b8560200181815250508560200151856020015111156040518060400160405280601681526020017f4d414b45525f4f524445525f4f5645525f4d415443480000000000000000000081525090611b20576040517f08c379a0000000000000000000000000000000000000000000000000000000008152600401611b1791906138b8565b60405180910390fd5b508560000151816000019073ffffffffffffffffffffffffffffffffffffffff16908173ffffffffffffffffffffffffffffffffffffffff16815250508760000151816020019073ffffffffffffffffffffffffffffffffffffffff16908173ffffffffffffffffffffffffffffffffffffffff1681525050611ba688608001516117b2565b15611bec578060000151816040019073ffffffffffffffffffffffffffffffffffffffff16908173ffffffffffffffffffffffffffffffffffffffff1681525050611c29565b8060200151816040019073ffffffffffffffffffffffffffffffffffffffff16908173ffffffffffffffffffffffffffffffffffffffff16815250505b6000611c388760800151612266565b90506000811115611cc1576000826060018181525050611cb3611c7b6064611c6d6064620186a061218490919063ffffffff16565b61218490919063ffffffff16565b611ca583611c978887610120015161218490919063ffffffff16565b61218490919063ffffffff16565b61140090919063ffffffff16565b826080018181525050611d3c565b6000611cd0886080015161228a565b905060008360800181815250506000611cee89600001518387611df4565b9050611d30611d0a6064620186a061218490919063ffffffff16565b611d228387610120015161218490919063ffffffff16565b61140090919063ffffffff16565b84606001818152505050505b611d7c611d566064620186a061218490919063ffffffff16565b611d6e8685610120015161218490919063ffffffff16565b61140090919063ffffffff16565b8260a001818152505050979650505050505050565b611d9e82608001516117b2565b15611db257611dad838261229f565b611dbd565b611dbc83826124a3565b5b505050565b6000611dd5611dd08361270a565b612752565b9050809050919050565b6000605082901b60f01c61ffff169050919050565b60008115611e1e57611e17611e0885610844565b8461218490919063ffffffff16565b9050611e35565b611e3260648461218490919063ffffffff16565b90505b9392505050565b60008160f81c60ff169050919050565b611e54612b31565b8260000151816000019073ffffffffffffffffffffffffffffffffffffffff16908173ffffffffffffffffffffffffffffffffffffffff1681525050826020015181608001818152505082604001518160a001818152505082606001518160c001818152505082608001518160e00181815250508160000151816040019073ffffffffffffffffffffffffffffffffffffffff16908173ffffffffffffffffffffffffffffffffffffffff16815250508160200151816060019073ffffffffffffffffffffffffffffffffffffffff16908173ffffffffffffffffffffffffffffffffffffffff16815250508160400151816020019073ffffffffffffffffffffffffffffffffffffffff16908173ffffffffffffffffffffffffffffffffffffffff168152505092915050565b6000611f8d826117b2565b158015611f9f5750611f9e8261178f565b5b9050919050565b6000601882901b60d81c64ffffffffff169050919050565b6000808260000151600160208110611fd257fe5b1a60f81b60f81c90506000808460000151600060208110611fef57fe5b1a60f81b60f81c90506000600181111561200557fe5b60ff168360ff16141561209657600187604051602001612025919061379b565b604051602081830303815290604052805190602001208287602001518860400151604051600081526020016040526040516120639493929190613873565b6020604051602081039080840390855afa158015612085573d6000803e3d6000fd5b505050602060405103519150612149565b6001808111156120a257fe5b60ff168360ff16141561210d576001878287602001518860400151604051600081526020016040526040516120da9493929190613873565b6020604051602081039080840390855afa1580156120fc573d6000803e3d6000fd5b505050602060405103519150612148565b6040517f08c379a000000000000000000000000000000000000000000000000000000000815260040161213f906138fa565b60405180910390fd5b5b8173ffffffffffffffffffffffffffffffffffffffff168673ffffffffffffffffffffffffffffffffffffffff161493505050509392505050565b60008083141561219757600090506121ee565b60008284029050828482816121a857fe5b04146121e9576040517f08c379a00000000000000000000000000000000000000000000000000000000081526004016121e0906139da565b60405180910390fd5b809150505b92915050565b60006122098360400151846020015184612785565b905092915050565b60008082840190508381101561225c576040517f08c379a0000000000000000000000000000000000000000000000000000000008152600401612253906139ba565b60405180910390fd5b8091505092915050565b600080606083901b60f01c61ffff169050612282816064612800565b915050919050565b6000604082901b60f01c61ffff169050919050565b600080905060008090505b83518110156124475761230983600001518583815181106122c757fe5b6020026020010151602001518684815181106122df57fe5b6020026020010151600001518785815181106122f757fe5b60200260200101516101000151612819565b6123c7836020015185838151811061231d57fe5b60200260200101516000015185604001516123c288868151811061233d57fe5b6020026020010151608001516123b48a888151811061235857fe5b602002602001015160c001516123a68c8a8151811061237357fe5b6020026020010151606001518d8b8151811061238b57fe5b6020026020010151610120015161221190919063ffffffff16565b61221190919063ffffffff16565b61293c90919063ffffffff16565b612819565b61241b61240c8583815181106123d957fe5b602002602001015160a001518684815181106123f157fe5b6020026020010151610120015161293c90919063ffffffff16565b8361221190919063ffffffff16565b915061243a84828151811061242c57fe5b602002602001015184612992565b80806001019150506122aa565b5061249e826020015183604001518560008151811061246257fe5b6020026020010151602001516124998760008151811061247e57fe5b602002602001015160e001518661293c90919063ffffffff16565b612819565b505050565b600080905060008090505b83518110156126d85761250d83600001518583815181106124cb57fe5b6020026020010151600001518684815181106124e357fe5b6020026020010151602001518785815181106124fb57fe5b60200260200101516101000151612819565b6125de836020015185838151811061252157fe5b60200260200101516020015186848151811061253957fe5b6020026020010151600001516125d988868151811061255457fe5b6020026020010151608001516125cb8a888151811061256f57fe5b602002602001015160c001516125bd8c8a8151811061258a57fe5b6020026020010151606001518d8b815181106125a257fe5b6020026020010151610120015161293c90919063ffffffff16565b61293c90919063ffffffff16565b61221190919063ffffffff16565b612819565b6126ac8482815181106125ed57fe5b60200260200101516080015161269e86848151811061260857fe5b602002602001015160e0015161269088868151811061262357fe5b602002602001015160c001516126828a888151811061263e57fe5b6020026020010151606001516126748c8a8151811061265957fe5b602002602001015160a001518b61221190919063ffffffff16565b61221190919063ffffffff16565b61221190919063ffffffff16565b61221190919063ffffffff16565b61293c90919063ffffffff16565b91506126cb8482815181106126bd57fe5b602002602001015184612992565b80806001019150506124ae565b506127058260200151846000815181106126ee57fe5b602002602001015160200151846040015184612819565b505050565b60008060405160200161271c906137f8565b60405160208183030381529060405280519060200120905060208303805182825261012082209350808252505081915050919050565b60008054826040516020016127689291906137c1565b604051602081830303815290604052805190602001209050919050565b60006127928484846129cf565b156127d2576040517f08c379a00000000000000000000000000000000000000000000000000000000081526004016127c99061393a565b60405180910390fd5b6127f7836127e9848761218490919063ffffffff16565b61140090919063ffffffff16565b90509392505050565b600081831061280f5781612811565b825b905092915050565b600081141561282757612936565b6000600660009054906101000a900473ffffffffffffffffffffffffffffffffffffffff169050600080516004516024516044516064517f15dacbea000000000000000000000000000000000000000000000000000000006000528a60045289602452886044528760645260008060846000808b5af19550846000528360045282602452816044528060645250505050506000811415612933576040518060400160405280601481526020017f5452414e534645525f46524f4d5f4641494c45440000000000000000000000008152506040517f08c379a000000000000000000000000000000000000000000000000000000000815260040161292a91906138b8565b60405180910390fd5b50505b50505050565b600082821115612981576040517f08c379a00000000000000000000000000000000000000000000000000000000081526004016129789061395a565b60405180910390fd5b600082840390508091505092915050565b7fd3ac06c3b34b93617ba2070b8b7a925029035b3f30fecd2d0fa8e5845724f31081836040516129c3929190613a1a565b60405180910390a15050565b60006129e4828561218490919063ffffffff16565b612a1d6103e8612a0f86612a01878a61218490919063ffffffff16565b612a2890919063ffffffff16565b61218490919063ffffffff16565b101590509392505050565b600080821415612a6d576040517f08c379a0000000000000000000000000000000000000000000000000000000008152600401612a64906139fa565b60405180910390fd5b818381612a7657fe5b06905092915050565b604051806040016040528060008019168152602001600081525090565b604051806101400160405280600073ffffffffffffffffffffffffffffffffffffffff168152602001600073ffffffffffffffffffffffffffffffffffffffff168152602001600073ffffffffffffffffffffffffffffffffffffffff168152602001600081526020016000815260200160008152602001600081526020016000815260200160008152602001600081525090565b604051806101000160405280600073ffffffffffffffffffffffffffffffffffffffff168152602001600073ffffffffffffffffffffffffffffffffffffffff168152602001600073ffffffffffffffffffffffffffffffffffffffff168152602001600073ffffffffffffffffffffffffffffffffffffffff168152602001600081526020016000815260200160008152602001600080191681525090565b604051806101400160405280600073ffffffffffffffffffffffffffffffffffffffff168152602001600073ffffffffffffffffffffffffffffffffffffffff168152602001600073ffffffffffffffffffffffffffffffffffffffff168152602001600081526020016000815260200160008152602001600081526020016000815260200160008152602001600081525090565b600081359050612c7581613bb0565b92915050565b600082601f830112612c8c57600080fd5b8135612c9f612c9a82613a8c565b613a5f565b9150818183526020840193506020810190508385610100840282011115612cc557600080fd5b60005b83811015612cf65781612cdb8882612df8565b84526020840193506101008301925050600181019050612cc8565b5050505092915050565b600082601f830112612d1157600080fd5b8135612d24612d1f82613ab4565b613a5f565b91508181835260208401935060208101905083856020840282011115612d4957600080fd5b60005b83811015612d795781612d5f8882613058565b845260208401935060208301925050600181019050612d4c565b5050505092915050565b600081359050612d9281613bc7565b92915050565b600060608284031215612daa57600080fd5b612db46060613a5f565b90506000612dc484828501612c66565b6000830152506020612dd884828501612c66565b6020830152506040612dec84828501612c66565b60408301525092915050565b60006101008284031215612e0b57600080fd5b612e1560c0613a5f565b90506000612e2584828501612c66565b6000830152506020612e3984828501613058565b6020830152506040612e4d84828501613058565b6040830152506060612e6184828501613058565b6060830152506080612e7584828501612d83565b60808301525060a0612e8984828501612f32565b60a08301525092915050565b60006101008284031215612ea857600080fd5b612eb260c0613a5f565b90506000612ec284828501612c66565b6000830152506020612ed684828501613058565b6020830152506040612eea84828501613058565b6040830152506060612efe84828501613058565b6060830152506080612f1284828501612d83565b60808301525060a0612f2684828501612f32565b60a08301525092915050565b600060608284031215612f4457600080fd5b612f4e6060613a5f565b90506000612f5e84828501612d83565b6000830152506020612f7284828501612d83565b6020830152506040612f8684828501612d83565b60408301525092915050565b60006101008284031215612fa557600080fd5b612fb0610100613a5f565b90506000612fc084828501612c66565b6000830152506020612fd484828501612c66565b6020830152506040612fe884828501612c66565b6040830152506060612ffc84828501612c66565b606083015250608061301084828501613058565b60808301525060a061302484828501613058565b60a08301525060c061303884828501613058565b60c08301525060e061304c84828501612d83565b60e08301525092915050565b60008135905061306781613bde565b92915050565b60006020828403121561307f57600080fd5b600061308d84828501612c66565b91505092915050565b600080604083850312156130a957600080fd5b60006130b785828601612c66565b92505060206130c885828601612c66565b9150509250929050565b6000602082840312156130e457600080fd5b60006130f284828501612d83565b91505092915050565b6000806000806101a0858703121561311257600080fd5b600061312087828801612e95565b94505061010085013567ffffffffffffffff81111561313e57600080fd5b61314a87828801612c7b565b93505061012085013567ffffffffffffffff81111561316857600080fd5b61317487828801612d00565b92505061014061318687828801612d98565b91505092959194509250565b600061010082840312156131a557600080fd5b60006131b384828501612f92565b91505092915050565b6131c581613b03565b82525050565b6131d481613b03565b82525050565b6131e381613b15565b82525050565b6131f281613b21565b82525050565b61320961320482613b21565b613b95565b82525050565b600061321a82613adc565b6132248185613ae7565b9350613234818560208601613b62565b61323d81613b9f565b840191505092915050565b6000613255600e83613ae7565b91507f444953434f554e545f4552524f520000000000000000000000000000000000006000830152602082019050919050565b6000613295601c83613af8565b91507f19457468657265756d205369676e6564204d6573736167653a0a3332000000006000830152601c82019050919050565b60006132d5600283613af8565b91507f19010000000000000000000000000000000000000000000000000000000000006000830152600282019050919050565b6000613315609f83613af8565b91507f4f726465722861646472657373207472616465722c616464726573732072656c60008301527f617965722c616464726573732062617365546f6b656e2c61646472657373207160208301527f756f7465546f6b656e2c75696e743235362062617365546f6b656e416d6f756e60408301527f742c75696e743235362071756f7465546f6b656e416d6f756e742c75696e743260608301527f353620676173546f6b656e416d6f756e742c62797465733332206461746129006080830152609f82019050919050565b60006133ed601383613ae7565b91507f494e56414c49445f5349474e5f4d4554484f44000000000000000000000000006000830152602082019050919050565b600061342d600e83613ae7565b91507f4449564944494e475f4552524f520000000000000000000000000000000000006000830152602082019050919050565b600061346d600e83613ae7565b91507f524f554e44494e475f4552524f520000000000000000000000000000000000006000830152602082019050919050565b60006134ad600983613ae7565b91507f5355425f4552524f5200000000000000000000000000000000000000000000006000830152602082019050919050565b60006134ed600d83613ae7565b91507f494e56414c49445f4f574e4552000000000000000000000000000000000000006000830152602082019050919050565b600061352d601983613af8565b91507f454950373132446f6d61696e28737472696e67206e616d6529000000000000006000830152601982019050919050565b600061356d600983613ae7565b91507f4e4f545f4f574e455200000000000000000000000000000000000000000000006000830152602082019050919050565b60006135ad600983613ae7565b91507f4144445f4552524f5200000000000000000000000000000000000000000000006000830152602082019050919050565b60006135ed600983613ae7565b91507f4d554c5f4552524f5200000000000000000000000000000000000000000000006000830152602082019050919050565b600061362d600983613ae7565b91507f4d4f445f4552524f5200000000000000000000000000000000000000000000006000830152602082019050919050565b6101408201600082015161367760008501826131bc565b50602082015161368a60208501826131bc565b50604082015161369d60408501826131bc565b5060608201516136b0606085018261376e565b5060808201516136c3608085018261376e565b5060a08201516136d660a085018261376e565b5060c08201516136e960c085018261376e565b5060e08201516136fc60e085018261376e565b5061010082015161371161010085018261376e565b5061012082015161372661012085018261376e565b50505050565b60608201600082015161374260008501826131bc565b50602082015161375560208501826131bc565b50604082015161376860408501826131bc565b50505050565b61377781613b4b565b82525050565b61378681613b4b565b82525050565b61379581613b55565b82525050565b60006137a682613288565b91506137b282846131f8565b60208201915081905092915050565b60006137cc826132c8565b91506137d882856131f8565b6020820191506137e882846131f8565b6020820191508190509392505050565b600061380382613308565b9150819050919050565b600061381882613520565b9150819050919050565b600060208201905061383760008301846131cb565b92915050565b600060208201905061385260008301846131da565b92915050565b600060208201905061386d60008301846131e9565b92915050565b600060808201905061388860008301876131e9565b613895602083018661378c565b6138a260408301856131e9565b6138af60608301846131e9565b95945050505050565b600060208201905081810360008301526138d2818461320f565b905092915050565b600060208201905081810360008301526138f381613248565b9050919050565b60006020820190508181036000830152613913816133e0565b9050919050565b6000602082019050818103600083015261393381613420565b9050919050565b6000602082019050818103600083015261395381613460565b9050919050565b60006020820190508181036000830152613973816134a0565b9050919050565b60006020820190508181036000830152613993816134e0565b9050919050565b600060208201905081810360008301526139b381613560565b9050919050565b600060208201905081810360008301526139d3816135a0565b9050919050565b600060208201905081810360008301526139f3816135e0565b9050919050565b60006020820190508181036000830152613a1381613620565b9050919050565b60006101a082019050613a30600083018561372c565b613a3d6060830184613660565b9392505050565b6000602082019050613a59600083018461377d565b92915050565b6000604051905081810181811067ffffffffffffffff82111715613a8257600080fd5b8060405250919050565b600067ffffffffffffffff821115613aa357600080fd5b602082029050602081019050919050565b600067ffffffffffffffff821115613acb57600080fd5b602082029050602081019050919050565b600081519050919050565b600082825260208201905092915050565b600081905092915050565b6000613b0e82613b2b565b9050919050565b60008115159050919050565b6000819050919050565b600073ffffffffffffffffffffffffffffffffffffffff82169050919050565b6000819050919050565b600060ff82169050919050565b60005b83811015613b80578082015181840152602081019050613b65565b83811115613b8f576000848401525b50505050565b6000819050919050565b6000601f19601f8301169050919050565b613bb981613b03565b8114613bc457600080fd5b50565b613bd081613b21565b8114613bdb57600080fd5b50565b613be781613b4b565b8114613bf257600080fd5b5056fe4d414b45525f4f524445525f43414e5f4e4f545f42455f4d41524b45545f4f52444552a365627a7a72315820be30975e1ab734f71fa9ea5cf48c1dba26eef68010cff9ba1aa1b754bb3d0a336c6578706572696d656e74616cf564736f6c63430005100040",
  "source": "/**\r\n * Submitted for verification at Etherscan.io on 2019-03-11\r\n * https://etherscan.io/address/0xe2a0bfe759e2a4444442da5064ec549616fff101\r\n * 0xE2a0BFe759e2A4444442Da5064ec549616FFF101\r\n*/\r\n\r\n/*\r\n\r\n    Copyright 2019 The Hydro Protocol Foundation\r\n\r\n    Licensed under the Apache License, Version 2.0 (the \"License\");\r\n    you may not use this file except in compliance with the License.\r\n    You may obtain a copy of the License at\r\n\r\n        http://www.apache.org/licenses/LICENSE-2.0\r\n\r\n    Unless required by applicable law or agreed to in writing, software\r\n    distributed under the License is distributed on an \"AS IS\" BASIS,\r\n    WITHOUT WARRANTIES OR CONDITIONS OF ANY KIND, either express or implied.\r\n    See the License for the specific language governing permissions and\r\n    limitations under the License.\r\n\r\n*/\r\n\r\npragma solidity ^0.5.0;\r\npragma experimental ABIEncoderV2;\r\n\r\n/// @dev Math operations with safety checks that revert on error\r\nlibrary SafeMath {\r\n\r\n    /// @dev Multiplies two numbers, reverts on overflow.\r\n    function mul(uint256 a, uint256 b) internal pure returns (uint256) {\r\n        if (a == 0) {\r\n            return 0;\r\n        }\r\n\r\n        uint256 c = a * b;\r\n        require(c / a == b, \"MUL_ERROR\");\r\n\r\n        return c;\r\n    }\r\n\r\n    /// @dev Integer division of two numbers truncating the quotient, reverts on division by zero.\r\n    function div(uint256 a, uint256 b) internal pure returns (uint256) {\r\n        require(b > 0, \"DIVIDING_ERROR\");\r\n        uint256 c = a / b;\r\n        return c;\r\n    }\r\n\r\n    /// @dev Subtracts two numbers, reverts on overflow (i.e. if subtrahend is greater than minuend).\r\n    function sub(uint256 a, uint256 b) internal pure returns (uint256) {\r\n        require(b <= a, \"SUB_ERROR\");\r\n        uint256 c = a - b;\r\n        return c;\r\n    }\r\n\r\n    /// @dev Adds two numbers, reverts on overflow.\r\n    function add(uint256 a, uint256 b) internal pure returns (uint256) {\r\n        uint256 c = a + b;\r\n        require(c >= a, \"ADD_ERROR\");\r\n        return c;\r\n    }\r\n\r\n    /// @dev Divides two numbers and returns the remainder (unsigned integer modulo), reverts when dividing by zero.\r\n    function mod(uint256 a, uint256 b) internal pure returns (uint256) {\r\n        require(b != 0, \"MOD_ERROR\");\r\n        return a % b;\r\n    }\r\n}\r\n\r\n/**\r\n * EIP712 Ethereum typed structured data hashing and signing\r\n */\r\ncontract EIP712 {\r\n    string internal constant DOMAIN_NAME = \"Hydro Protocol\";\r\n\r\n    /**\r\n     * Hash of the EIP712 Domain Separator Schema\r\n     */\r\n    bytes32 public constant EIP712_DOMAIN_TYPEHASH = keccak256(\r\n        abi.encodePacked(\"EIP712Domain(string name)\")\r\n    );\r\n\r\n    bytes32 public DOMAIN_SEPARATOR;\r\n\r\n    constructor () public {\r\n        DOMAIN_SEPARATOR = keccak256(\r\n            abi.encodePacked(\r\n                EIP712_DOMAIN_TYPEHASH,\r\n                keccak256(bytes(DOMAIN_NAME))\r\n            )\r\n        );\r\n    }\r\n\r\n    /**\r\n     * Calculates EIP712 encoding for a hash struct in this EIP712 Domain.\r\n     *\r\n     * @param eip712hash The EIP712 hash struct.\r\n     * @return EIP712 hash applied to this EIP712 Domain.\r\n     */\r\n    function hashEIP712Message(bytes32 eip712hash) internal view returns (bytes32) {\r\n        return keccak256(abi.encodePacked(\"\\x19\\x01\", DOMAIN_SEPARATOR, eip712hash));\r\n    }\r\n}\r\n\r\ncontract LibSignature {\r\n\r\n    enum SignatureMethod {\r\n        EthSign,\r\n        EIP712\r\n    }\r\n\r\n    /**\r\n     * OrderSignature struct contains typical signature data as v, r, and s with the signature\r\n     * method encoded in as well.\r\n     */\r\n    struct OrderSignature {\r\n        /**\r\n         * Config contains the following values packed into 32 bytes\r\n         * \r\n         *                      length(bytes)   desc                                      \r\n         * \r\n         *  v                   1               the v parameter of a signature            \r\n         *  signatureMethod     1               SignatureMethod enum value                \r\n         * \r\n         */\r\n        bytes32 config;\r\n        bytes32 r;\r\n        bytes32 s;\r\n    }\r\n\r\n    /**\r\n     * Validate a signature given a hash calculated from the order data, the signer, and the\r\n     * signature data passed in with the order.\r\n     *\r\n     * This function will revert the transaction if the signature method is invalid.\r\n     *\r\n     * @param hash Hash bytes calculated by taking the EIP712 hash of the passed order data\r\n     * @param signerAddress The address of the signer\r\n     * @param signature The signature data passed along with the order to validate against\r\n     * @return True if the calculated signature matches the order signature data, false otherwise.\r\n     */\r\n    function isValidSignature(bytes32 hash, address signerAddress, OrderSignature memory signature)\r\n        internal\r\n        pure\r\n        returns (bool)\r\n    {\r\n        uint8 method = uint8(signature.config[1]);\r\n        address recovered;\r\n        uint8 v = uint8(signature.config[0]);\r\n\r\n        if (method == uint8(SignatureMethod.EthSign)) {\r\n            recovered = ecrecover(\r\n                keccak256(abi.encodePacked(\"\\x19Ethereum Signed Message:\\n32\", hash)),\r\n                v,\r\n                signature.r,\r\n                signature.s\r\n            );\r\n        } else if (method == uint8(SignatureMethod.EIP712)) {\r\n            recovered = ecrecover(hash, v, signature.r, signature.s);\r\n        } else {\r\n            revert(\"INVALID_SIGN_METHOD\");\r\n        }\r\n\r\n        return signerAddress == recovered;\r\n    }\r\n}\r\n\r\ncontract LibMath {\r\n    using SafeMath for uint256;\r\n\r\n    /**\r\n     * Check the amount of precision lost by calculating multiple * (numerator / denominator). To\r\n     * do this, we check the remainder and make sure it's proportionally less than 0.1%. So we have:\r\n     *\r\n     *     ((numerator * multiple) % denominator)     1\r\n     *     -------------------------------------- < ----\r\n     *              numerator * multiple            1000\r\n     *\r\n     * To avoid further division, we can move the denominators to the other sides and we get:\r\n     *\r\n     *     ((numerator * multiple) % denominator) * 1000 < numerator * multiple\r\n     *\r\n     * Since we want to return true if there IS a rounding error, we simply flip the sign and our\r\n     * final equation becomes:\r\n     *\r\n     *     ((numerator * multiple) % denominator) * 1000 >= numerator * multiple\r\n     *\r\n     * @param numerator The numerator of the proportion\r\n     * @param denominator The denominator of the proportion\r\n     * @param multiple The amount we want a proportion of\r\n     * @return Boolean indicating if there is a rounding error when calculating the proportion\r\n     */\r\n    function isRoundingError(uint256 numerator, uint256 denominator, uint256 multiple)\r\n        internal\r\n        pure\r\n        returns (bool)\r\n    {\r\n        return numerator.mul(multiple).mod(denominator).mul(1000) >= numerator.mul(multiple);\r\n    }\r\n\r\n    /// @dev calculate \"multiple * (numerator / denominator)\", rounded down.\r\n    /// revert when there is a rounding error.\r\n    /**\r\n     * Takes an amount (multiple) and calculates a proportion of it given a numerator/denominator\r\n     * pair of values. The final value will be rounded down to the nearest integer value.\r\n     *\r\n     * This function will revert the transaction if rounding the final value down would lose more\r\n     * than 0.1% precision.\r\n     *\r\n     * @param numerator The numerator of the proportion\r\n     * @param denominator The denominator of the proportion\r\n     * @param multiple The amount we want a proportion of\r\n     * @return The final proportion of multiple rounded down\r\n     */\r\n    function getPartialAmountFloor(uint256 numerator, uint256 denominator, uint256 multiple)\r\n        internal\r\n        pure\r\n        returns (uint256)\r\n    {\r\n        require(!isRoundingError(numerator, denominator, multiple), \"ROUNDING_ERROR\");\r\n        return numerator.mul(multiple).div(denominator);\r\n    }\r\n\r\n    /**\r\n     * Returns the smaller integer of the two passed in.\r\n     *\r\n     * @param a Unsigned integer\r\n     * @param b Unsigned integer\r\n     * @return The smaller of the two integers\r\n     */\r\n    function min(uint256 a, uint256 b) internal pure returns (uint256) {\r\n        return a < b ? a : b;\r\n    }\r\n}\r\n\r\ncontract LibOrder is EIP712, LibSignature, LibMath {\r\n\r\n    uint256 public constant REBATE_RATE_BASE = 100;\r\n\r\n    struct Order {\r\n        address trader;\r\n        address relayer;\r\n        address baseToken;\r\n        address quoteToken;\r\n        uint256 baseTokenAmount;\r\n        uint256 quoteTokenAmount;\r\n        uint256 gasTokenAmount;\r\n\r\n        /**\r\n         * Data contains the following values packed into 32 bytes\r\n         * \r\n         *                      length(bytes)   desc                                      \r\n         * \r\n         *  version             1               order version                             \r\n         *  side                1               0: buy, 1: sell                           \r\n         *  isMarketOrder       1               0: limitOrder, 1: marketOrder             \r\n         *  expiredAt           5               order expiration time in seconds          \r\n         *  asMakerFeeRate      2               maker fee rate (base 100,000)             \r\n         *  asTakerFeeRate      2               taker fee rate (base 100,000)             \r\n         *  makerRebateRate     2               rebate rate for maker (base 100)          \r\n         *  salt                8               salt                                      \r\n         *  isMakerOnly         1               is maker only                             \r\n         *                      9               reserved                                  \r\n         * \r\n         */\r\n        bytes32 data;\r\n    }\r\n\r\n    enum OrderStatus {\r\n        EXPIRED,\r\n        CANCELLED,\r\n        FILLABLE,\r\n        FULLY_FILLED\r\n    }\r\n\r\n    bytes32 public constant EIP712_ORDER_TYPE = keccak256(\r\n        abi.encodePacked(\r\n            \"Order(address trader,address relayer,address baseToken,address quoteToken,uint256 baseTokenAmount,uint256 quoteTokenAmount,uint256 gasTokenAmount,bytes32 data)\"\r\n        )\r\n    );\r\n\r\n    /**\r\n     * Calculates the Keccak-256 EIP712 hash of the order using the Hydro Protocol domain.\r\n     *\r\n     * @param order The order data struct.\r\n     * @return Fully qualified EIP712 hash of the order in the Hydro Protocol domain.\r\n     */\r\n    function getOrderHash(Order memory order) internal view returns (bytes32 orderHash) {\r\n        orderHash = hashEIP712Message(hashOrder(order));\r\n        return orderHash;\r\n    }\r\n\r\n    /**\r\n     * Calculates the EIP712 hash of the order.\r\n     *\r\n     * @param order The order data struct.\r\n     * @return Hash of the order.\r\n     */\r\n    function hashOrder(Order memory order) internal pure returns (bytes32 result) {\r\n        /**\r\n         * Calculate the following hash in solidity assembly to save gas.\r\n         *\r\n         * keccak256(\r\n         *     abi.encodePacked(\r\n         *         EIP712_ORDER_TYPE,\r\n         *         bytes32(order.trader),\r\n         *         bytes32(order.relayer),\r\n         *         bytes32(order.baseToken),\r\n         *         bytes32(order.quoteToken),\r\n         *         order.baseTokenAmount,\r\n         *         order.quoteTokenAmount,\r\n         *         order.gasTokenAmount,\r\n         *         order.data\r\n         *     )\r\n         * );\r\n         */\r\n\r\n        bytes32 orderType = EIP712_ORDER_TYPE;\r\n\r\n        assembly {\r\n            let start := sub(order, 32)\r\n            let tmp := mload(start)\r\n\r\n            // 288 = (1 + 8) * 32\r\n            //\r\n            // [0...32)   bytes: EIP712_ORDER_TYPE\r\n            // [32...288) bytes: order\r\n            mstore(start, orderType)\r\n            result := keccak256(start, 288)\r\n\r\n            mstore(start, tmp)\r\n        }\r\n\r\n        return result;\r\n    }\r\n\r\n    /* Functions to extract info from data bytes in Order struct */\r\n\r\n    function getOrderVersion(bytes32 data) internal pure returns (uint256) {\r\n        return uint256(uint8(byte(data)));\r\n    }\r\n\r\n    function getExpiredAtFromOrderData(bytes32 data) internal pure returns (uint256) {\r\n        return uint256(uint40(bytes5(data << (8*3))));\r\n    }\r\n\r\n    function isSell(bytes32 data) internal pure returns (bool) {\r\n        return uint8(data[1]) == 1;\r\n    }\r\n\r\n    function isMarketOrder(bytes32 data) internal pure returns (bool) {\r\n        return uint8(data[2]) == 1;\r\n    }\r\n\r\n    function isMakerOnly(bytes32 data) internal pure returns (bool) {\r\n        return uint8(data[22]) == 1;\r\n    }\r\n\r\n    function isMarketBuy(bytes32 data) internal pure returns (bool) {\r\n        return !isSell(data) && isMarketOrder(data);\r\n    }\r\n\r\n    function getAsMakerFeeRateFromOrderData(bytes32 data) internal pure returns (uint256) {\r\n        return uint256(uint16(bytes2(data << (8*8))));\r\n    }\r\n\r\n    function getAsTakerFeeRateFromOrderData(bytes32 data) internal pure returns (uint256) {\r\n        return uint256(uint16(bytes2(data << (8*10))));\r\n    }\r\n\r\n    function getMakerRebateRateFromOrderData(bytes32 data) internal pure returns (uint256) {\r\n        uint256 makerRebate = uint256(uint16(bytes2(data << (8*12))));\r\n\r\n        // make sure makerRebate will never be larger than REBATE_RATE_BASE, which is 100\r\n        return min(makerRebate, REBATE_RATE_BASE);\r\n    }\r\n}\r\n\r\n/**\r\n * @title LibRelayer provides two distinct features for relayers.\r\n *\r\n * First, Relayers can opt into or out of the Hydro liquidity incentive system.\r\n *\r\n * Second, a relayer can register a delegate address.\r\n * Delegates can send matching requests on behalf of relayers.\r\n * The delegate scheme allows additional possibilities for smart contract interaction.\r\n * on behalf of the relayer.\r\n */\r\ncontract LibRelayer {\r\n\r\n    /**\r\n     * Mapping of relayerAddress => delegateAddress\r\n     */\r\n    mapping (address => mapping (address => bool)) public relayerDelegates;\r\n\r\n    /**\r\n     * Mapping of relayerAddress => whether relayer is opted out of the liquidity incentive system\r\n     */\r\n    mapping (address => bool) hasExited;\r\n\r\n    event RelayerApproveDelegate(address indexed relayer, address indexed delegate);\r\n    event RelayerRevokeDelegate(address indexed relayer, address indexed delegate);\r\n\r\n    event RelayerExit(address indexed relayer);\r\n    event RelayerJoin(address indexed relayer);\r\n\r\n    /**\r\n     * Approve an address to match orders on behalf of msg.sender\r\n     */\r\n    function approveDelegate(address delegate) external {\r\n        relayerDelegates[msg.sender][delegate] = true;\r\n        emit RelayerApproveDelegate(msg.sender, delegate);\r\n    }\r\n\r\n    /**\r\n     * Revoke an existing delegate\r\n     */\r\n    function revokeDelegate(address delegate) external {\r\n        relayerDelegates[msg.sender][delegate] = false;\r\n        emit RelayerRevokeDelegate(msg.sender, delegate);\r\n    }\r\n\r\n    /**\r\n     * @return true if msg.sender is allowed to match orders which belong to relayer\r\n     */\r\n    function canMatchOrdersFrom(address relayer) public view returns(bool) {\r\n        return msg.sender == relayer || relayerDelegates[relayer][msg.sender] == true;\r\n    }\r\n\r\n    /**\r\n     * Join the Hydro incentive system.\r\n     */\r\n    function joinIncentiveSystem() external {\r\n        delete hasExited[msg.sender];\r\n        emit RelayerJoin(msg.sender);\r\n    }\r\n\r\n    /**\r\n     * Exit the Hydro incentive system.\r\n     * For relayers that choose to opt-out, the Hydro Protocol\r\n     * effective becomes a tokenless protocol.\r\n     */\r\n    function exitIncentiveSystem() external {\r\n        hasExited[msg.sender] = true;\r\n        emit RelayerExit(msg.sender);\r\n    }\r\n\r\n    /**\r\n     * @return true if relayer is participating in the Hydro incentive system.\r\n     */\r\n    function isParticipant(address relayer) public view returns(bool) {\r\n        return !hasExited[relayer];\r\n    }\r\n}\r\n\r\n/// @title Ownable\r\n/// @dev The Ownable contract has an owner address, and provides basic authorization control\r\n/// functions, this simplifies the implementation of \"user permissions\".\r\ncontract LibOwnable {\r\n    address private _owner;\r\n\r\n    event OwnershipTransferred(\r\n        address indexed previousOwner,\r\n        address indexed newOwner\r\n    );\r\n\r\n    /// @dev The Ownable constructor sets the original `owner` of the contract to the sender account.\r\n    constructor() internal {\r\n        _owner = msg.sender;\r\n        emit OwnershipTransferred(address(0), _owner);\r\n    }\r\n\r\n    /// @return the address of the owner.\r\n    function owner() public view returns(address) {\r\n        return _owner;\r\n    }\r\n\r\n    /// @dev Throws if called by any account other than the owner.\r\n    modifier onlyOwner() {\r\n        require(isOwner(), \"NOT_OWNER\");\r\n        _;\r\n    }\r\n\r\n    /// @return true if `msg.sender` is the owner of the contract.\r\n    function isOwner() public view returns(bool) {\r\n        return msg.sender == _owner;\r\n    }\r\n\r\n    /// @dev Allows the current owner to relinquish control of the contract.\r\n    /// @notice Renouncing to ownership will leave the contract without an owner.\r\n    /// It will not be possible to call the functions with the `onlyOwner`\r\n    /// modifier anymore.\r\n    function renounceOwnership() public onlyOwner {\r\n        emit OwnershipTransferred(_owner, address(0));\r\n        _owner = address(0);\r\n    }\r\n\r\n    /// @dev Allows the current owner to transfer control of the contract to a newOwner.\r\n    /// @param newOwner The address to transfer ownership to.\r\n    function transferOwnership(address newOwner) public onlyOwner {\r\n        require(newOwner != address(0), \"INVALID_OWNER\");\r\n        emit OwnershipTransferred(_owner, newOwner);\r\n        _owner = newOwner;\r\n    }\r\n}\r\n\r\n/**\r\n * Library to handle fee discount calculation\r\n */\r\ncontract LibDiscount is LibOwnable {\r\n    using SafeMath for uint256;\r\n\r\n    // The base discounted rate is 100% of the current rate, or no discount.\r\n    uint256 public constant DISCOUNT_RATE_BASE = 100;\r\n\r\n    address public hotTokenAddress;\r\n\r\n    constructor(address _hotTokenAddress) internal {\r\n        hotTokenAddress = _hotTokenAddress;\r\n    }\r\n\r\n    /**\r\n     * Get the HOT token balance of an address.\r\n     *\r\n     * @param owner The address to check.\r\n     * @return The HOT balance for the owner address.\r\n     */\r\n    function getHotBalance(address owner) internal returns (uint256 result) {\r\n        address hotToken = hotTokenAddress;\r\n\r\n        // IERC20(hotTokenAddress).balanceOf(owner)\r\n\r\n        /**\r\n         * We construct calldata for the `balanceOf` ABI.\r\n         * The layout of this calldata is in the table below.\r\n         *\r\n         * \r\n         *  Area    Offset  Length  Contents          \r\n         * \r\n         *  Header  0       4       function selector \r\n         *  Params  4       32      owner address     \r\n         * \r\n         */\r\n        assembly {\r\n            // Keep these so we can restore stack memory upon completion\r\n            let tmp1 := mload(0)\r\n            let tmp2 := mload(4)\r\n\r\n            // keccak256('balanceOf(address)') bitmasked to 4 bytes\r\n            mstore(0, 0x70a0823100000000000000000000000000000000000000000000000000000000)\r\n            mstore(4, owner)\r\n\r\n            // No need to check the return value because hotToken is a trustworthy contract\r\n            result := call(\r\n                gas,      // Forward all gas\r\n                hotToken, // HOT token deployment address\r\n                0,        // Don't send any ETH\r\n                0,        // Pointer to start of calldata\r\n                36,       // Length of calldata\r\n                0,        // Overwrite calldata with output\r\n                32        // Expecting uint256 output, the token balance\r\n            )\r\n            result := mload(0)\r\n\r\n            // Restore stack memory\r\n            mstore(0, tmp1)\r\n            mstore(4, tmp2)\r\n        }\r\n    }\r\n\r\n    bytes32 public discountConfig = 0x043c000027106400004e205a000075305000009c404600000000000000000000;\r\n\r\n    /**\r\n     * Calculate and return the rate at which fees will be charged for an address. The discounted\r\n     * rate depends on how much HOT token is owned by the user. Values returned will be a percentage\r\n     * used to calculate how much of the fee is paid, so a return value of 100 means there is 0\r\n     * discount, and a return value of 70 means a 30% rate reduction.\r\n     *\r\n     * The discountConfig is defined as such:\r\n     * \r\n     *                     length(bytes)   desc                       \r\n     * \r\n     *  count              1               the count of configs       \r\n     *  maxDiscountedRate  1               the max discounted rate    \r\n     *  config             5 each                                     \r\n     * \r\n     *\r\n     * The default discount structure as defined in code would give the following result:\r\n     *\r\n     * Fee discount table\r\n     * \r\n     *      HOT BALANCE     DISCOUNT \r\n     * \r\n     *      0 <= x < 10000      0%   \r\n     * \r\n     *  10000 <= x < 20000     10%   \r\n     * \r\n     *  20000 <= x < 30000     20%   \r\n     * \r\n     *  30000 <= x < 40000     30%   \r\n     * \r\n     *  40000 <= x             40%   \r\n     * \r\n     *\r\n     * Breaking down the bytes of 0x043c000027106400004e205a000075305000009c404600000000000000000000\r\n     *\r\n     * 0x  04           3c          0000271064  00004e205a  0000753050  00009c4046  0000000000  0000000000;\r\n     *     ~~           ~~          ~~~~~~~~~~  ~~~~~~~~~~  ~~~~~~~~~~  ~~~~~~~~~~  ~~~~~~~~~~  ~~~~~~~~~~\r\n     *      |            |               |           |           |           |           |           |\r\n     *    count  maxDiscountedRate       1           2           3           4           5           6\r\n     *\r\n     * The first config breaks down as follows:  00002710   64\r\n     *                                           ~~~~~~~~   ~~\r\n     *                                               |      |\r\n     *                                              bar    rate\r\n     *\r\n     * Meaning if a user has less than 10000 (0x00002710) HOT, they will pay 100%(0x64) of the\r\n     * standard fee.\r\n     *\r\n     * @param user The user address to calculate a fee discount for.\r\n     * @return The percentage of the regular fee this user will pay.\r\n     */\r\n    function getDiscountedRate(address user) public returns (uint256 result) {\r\n        uint256 hotBalance = getHotBalance(user);\r\n\r\n        if (hotBalance == 0) {\r\n            return DISCOUNT_RATE_BASE;\r\n        }\r\n\r\n        bytes32 config = discountConfig;\r\n        uint256 count = uint256(uint8(byte(config)));\r\n        uint256 bar;\r\n\r\n        // HOT Token has 18 decimals\r\n        hotBalance = hotBalance.div(10**18);\r\n\r\n        for (uint256 i = 0; i < count; i++) {\r\n            bar = uint256(uint32(bytes4(config << (2 + i * 5) * 8)));\r\n\r\n            if (hotBalance < bar) {\r\n                result = uint256(uint8(byte(config << (2 + i * 5 + 4) * 8)));\r\n                break;\r\n            }\r\n        }\r\n\r\n        // If we haven't found a rate in the config yet, use the maximum rate.\r\n        if (result == 0) {\r\n            result = uint256(uint8(config[1]));\r\n        }\r\n\r\n        // Make sure our discount algorithm never returns a higher rate than the base.\r\n        require(result <= DISCOUNT_RATE_BASE, \"DISCOUNT_ERROR\");\r\n    }\r\n\r\n    /**\r\n     * Owner can modify discount configuration.\r\n     *\r\n     * @param newConfig A data blob representing the new discount config. Details on format above.\r\n     */\r\n    function changeDiscountConfig(bytes32 newConfig) external onlyOwner {\r\n        discountConfig = newConfig;\r\n    }\r\n}\r\n\r\ncontract LibExchangeErrors {\r\n    string constant INVALID_TRADER = \"INVALID_TRADER\";\r\n    string constant INVALID_SENDER = \"INVALID_SENDER\";\r\n    // Taker order and maker order can't be matched\r\n    string constant INVALID_MATCH = \"INVALID_MATCH\";\r\n    string constant INVALID_SIDE = \"INVALID_SIDE\";\r\n    // Signature validation failed\r\n    string constant INVALID_ORDER_SIGNATURE = \"INVALID_ORDER_SIGNATURE\";\r\n    // Taker order is not valid\r\n    string constant ORDER_IS_NOT_FILLABLE = \"ORDER_IS_NOT_FILLABLE\";\r\n    string constant MAKER_ORDER_CAN_NOT_BE_MARKET_ORDER = \"MAKER_ORDER_CAN_NOT_BE_MARKET_ORDER\";\r\n    string constant TRANSFER_FROM_FAILED = \"TRANSFER_FROM_FAILED\";\r\n    string constant MAKER_ORDER_OVER_MATCH = \"MAKER_ORDER_OVER_MATCH\";\r\n    string constant TAKER_ORDER_OVER_MATCH = \"TAKER_ORDER_OVER_MATCH\";\r\n    string constant ORDER_VERSION_NOT_SUPPORTED = \"ORDER_VERSION_NOT_SUPPORTED\";\r\n\r\n    string constant MAKER_ONLY_ORDER_CANNOT_BE_TAKER = \"MAKER_ONLY_ORDER_CANNOT_BE_TAKER\";\r\n}\r\n\r\ncontract HybridExchange is LibMath, LibOrder, LibRelayer, LibDiscount, LibExchangeErrors {\r\n    using SafeMath for uint256;\r\n\r\n    uint256 public constant FEE_RATE_BASE = 100000;\r\n\r\n    /* Order v2 data is uncompatible with v1. This contract can only handle v2 order. */\r\n    uint256 public constant SUPPORTED_ORDER_VERSION = 2;\r\n\r\n    /**\r\n     * Address of the proxy responsible for asset transfer.\r\n     */\r\n    address public proxyAddress;\r\n\r\n    /**\r\n     * Mapping of orderHash => amount\r\n     * Generally the amount will be specified in base token units, however in the case of a market\r\n     * buy order the amount is specified in quote token units.\r\n     */\r\n    mapping (bytes32 => uint256) public filled;\r\n    /**\r\n     * Mapping of orderHash => whether order has been cancelled.\r\n     */\r\n    mapping (bytes32 => bool) public cancelled;\r\n\r\n    event Cancel(bytes32 indexed orderHash);\r\n\r\n    /**\r\n     * When orders are being matched, they will always contain the exact same base token,\r\n     * quote token, and relayer. Since excessive call data is very expensive, we choose\r\n     * to create a stripped down OrderParam struct containing only data that may vary between\r\n     * Order objects, and separate out the common elements into a set of addresses that will\r\n     * be shared among all of the OrderParam items. This is meant to eliminate redundancy in\r\n     * the call data, reducing it's size, and hence saving gas.\r\n     */\r\n    struct OrderParam {\r\n        address trader;\r\n        uint256 baseTokenAmount;\r\n        uint256 quoteTokenAmount;\r\n        uint256 gasTokenAmount;\r\n        bytes32 data;\r\n        OrderSignature signature;\r\n    }\r\n\r\n    /**\r\n     * Calculated data about an order object.\r\n     * Generally the filledAmount is specified in base token units, however in the case of a market\r\n     * buy order the filledAmount is specified in quote token units.\r\n     */\r\n    struct OrderInfo {\r\n        bytes32 orderHash;\r\n        uint256 filledAmount;\r\n    }\r\n\r\n    struct OrderAddressSet {\r\n        address baseToken;\r\n        address quoteToken;\r\n        address relayer;\r\n    }\r\n\r\n    struct MatchResult {\r\n        address maker;\r\n        address taker;\r\n        address buyer;\r\n        uint256 makerFee;\r\n        uint256 makerRebate;\r\n        uint256 takerFee;\r\n        uint256 makerGasFee;\r\n        uint256 takerGasFee;\r\n        uint256 baseTokenFilledAmount;\r\n        uint256 quoteTokenFilledAmount;\r\n    }\r\n\r\n\r\n    event Match(\r\n        OrderAddressSet addressSet,\r\n        MatchResult result\r\n    );\r\n\r\n    constructor(address _proxyAddress, address hotTokenAddress)\r\n        LibDiscount(hotTokenAddress)\r\n        public\r\n    {\r\n        proxyAddress = _proxyAddress;\r\n    }\r\n\r\n    /**\r\n     * Match taker order to a list of maker orders. Common addresses are passed in\r\n     * separately as an OrderAddressSet to reduce call size data and save gas.\r\n     *\r\n     * @param takerOrderParam A OrderParam object representing the order from the taker.\r\n     * @param makerOrderParams An array of OrderParam objects representing orders from a list of makers.\r\n     * @param orderAddressSet An object containing addresses common across each order.\r\n     */\r\n    function matchOrders(\r\n        OrderParam memory takerOrderParam,\r\n        OrderParam[] memory makerOrderParams,\r\n        uint256[] memory baseTokenFilledAmounts,\r\n        OrderAddressSet memory orderAddressSet\r\n    ) public {\r\n        require(canMatchOrdersFrom(orderAddressSet.relayer), INVALID_SENDER);\r\n        require(!isMakerOnly(takerOrderParam.data), MAKER_ONLY_ORDER_CANNOT_BE_TAKER);\r\n\r\n        bool isParticipantRelayer = isParticipant(orderAddressSet.relayer);\r\n        uint256 takerFeeRate = getTakerFeeRate(takerOrderParam, isParticipantRelayer);\r\n        OrderInfo memory takerOrderInfo = getOrderInfo(takerOrderParam, orderAddressSet);\r\n\r\n        // Calculate which orders match for settlement.\r\n        MatchResult[] memory results = new MatchResult[](makerOrderParams.length);\r\n\r\n        for (uint256 i = 0; i < makerOrderParams.length; i++) {\r\n            require(!isMarketOrder(makerOrderParams[i].data), MAKER_ORDER_CAN_NOT_BE_MARKET_ORDER);\r\n            require(isSell(takerOrderParam.data) != isSell(makerOrderParams[i].data), INVALID_SIDE);\r\n            validatePrice(takerOrderParam, makerOrderParams[i]);\r\n\r\n            OrderInfo memory makerOrderInfo = getOrderInfo(makerOrderParams[i], orderAddressSet);\r\n\r\n            results[i] = getMatchResult(\r\n                takerOrderParam,\r\n                takerOrderInfo,\r\n                makerOrderParams[i],\r\n                makerOrderInfo,\r\n                baseTokenFilledAmounts[i],\r\n                takerFeeRate,\r\n                isParticipantRelayer\r\n            );\r\n\r\n            // Update amount filled for this maker order.\r\n            filled[makerOrderInfo.orderHash] = makerOrderInfo.filledAmount;\r\n        }\r\n\r\n        // Update amount filled for this taker order.\r\n        filled[takerOrderInfo.orderHash] = takerOrderInfo.filledAmount;\r\n\r\n        settleResults(results, takerOrderParam, orderAddressSet);\r\n    }\r\n\r\n    /**\r\n     * Cancels an order, preventing it from being matched. In practice, matching mode relayers will\r\n     * generally handle cancellation off chain by removing the order from their system, however if\r\n     * the trader wants to ensure the order never goes through, or they no longer trust the relayer,\r\n     * this function may be called to block it from ever matching at the contract level.\r\n     *\r\n     * Emits a Cancel event on success.\r\n     *\r\n     * @param order The order to be cancelled.\r\n     */\r\n    function cancelOrder(Order memory order) public {\r\n        require(order.trader == msg.sender, INVALID_TRADER);\r\n\r\n        bytes32 orderHash = getOrderHash(order);\r\n        cancelled[orderHash] = true;\r\n\r\n        emit Cancel(orderHash);\r\n    }\r\n\r\n    /**\r\n     * Calculates current state of the order. Will revert transaction if this order is not\r\n     * fillable for any reason, or if the order signature is invalid.\r\n     *\r\n     * @param orderParam The OrderParam object containing Order data.\r\n     * @param orderAddressSet An object containing addresses common across each order.\r\n     * @return An OrderInfo object containing the hash and current amount filled\r\n     */\r\n    function getOrderInfo(OrderParam memory orderParam, OrderAddressSet memory orderAddressSet)\r\n        internal\r\n        view\r\n        returns (OrderInfo memory orderInfo)\r\n    {\r\n        require(getOrderVersion(orderParam.data) == SUPPORTED_ORDER_VERSION, ORDER_VERSION_NOT_SUPPORTED);\r\n\r\n        Order memory order = getOrderFromOrderParam(orderParam, orderAddressSet);\r\n        orderInfo.orderHash = getOrderHash(order);\r\n        orderInfo.filledAmount = filled[orderInfo.orderHash];\r\n        uint8 status = uint8(OrderStatus.FILLABLE);\r\n\r\n        if (!isMarketBuy(order.data) && orderInfo.filledAmount >= order.baseTokenAmount) {\r\n            status = uint8(OrderStatus.FULLY_FILLED);\r\n        } else if (isMarketBuy(order.data) && orderInfo.filledAmount >= order.quoteTokenAmount) {\r\n            status = uint8(OrderStatus.FULLY_FILLED);\r\n        } else if (block.timestamp >= getExpiredAtFromOrderData(order.data)) {\r\n            status = uint8(OrderStatus.EXPIRED);\r\n        } else if (cancelled[orderInfo.orderHash]) {\r\n            status = uint8(OrderStatus.CANCELLED);\r\n        }\r\n\r\n        require(status == uint8(OrderStatus.FILLABLE), ORDER_IS_NOT_FILLABLE);\r\n        require(\r\n            isValidSignature(orderInfo.orderHash, orderParam.trader, orderParam.signature),\r\n            INVALID_ORDER_SIGNATURE\r\n        );\r\n\r\n        return orderInfo;\r\n    }\r\n\r\n    /**\r\n     * Reconstruct an Order object from the given OrderParam and OrderAddressSet objects.\r\n     *\r\n     * @param orderParam The OrderParam object containing the Order data.\r\n     * @param orderAddressSet An object containing addresses common across each order.\r\n     * @return The reconstructed Order object.\r\n     */\r\n    function getOrderFromOrderParam(OrderParam memory orderParam, OrderAddressSet memory orderAddressSet)\r\n        internal\r\n        pure\r\n        returns (Order memory order)\r\n    {\r\n        order.trader = orderParam.trader;\r\n        order.baseTokenAmount = orderParam.baseTokenAmount;\r\n        order.quoteTokenAmount = orderParam.quoteTokenAmount;\r\n        order.gasTokenAmount = orderParam.gasTokenAmount;\r\n        order.data = orderParam.data;\r\n        order.baseToken = orderAddressSet.baseToken;\r\n        order.quoteToken = orderAddressSet.quoteToken;\r\n        order.relayer = orderAddressSet.relayer;\r\n    }\r\n\r\n    /**\r\n     * Validates that the maker and taker orders can be matched based on the listed prices.\r\n     *\r\n     * If the taker submitted a sell order, the matching maker order must have a price greater than\r\n     * or equal to the price the taker is willing to sell for.\r\n     *\r\n     * Since the price of an order is computed by order.quoteTokenAmount / order.baseTokenAmount\r\n     * we can establish the following formula:\r\n     *\r\n     *    takerOrder.quoteTokenAmount        makerOrder.quoteTokenAmount\r\n     *   -----------------------------  <=  -----------------------------\r\n     *     takerOrder.baseTokenAmount        makerOrder.baseTokenAmount\r\n     *\r\n     * To avoid precision loss from division, we modify the formula to avoid division entirely.\r\n     * In shorthand, this becomes:\r\n     *\r\n     *   takerOrder.quote * makerOrder.base <= takerOrder.base * makerOrder.quote\r\n     *\r\n     * We can apply this same process to buy orders - if the taker submitted a buy order then\r\n     * the matching maker order must have a price less than or equal to the price the taker is\r\n     * willing to pay. This means we can use the same result as above, but simply flip the\r\n     * sign of the comparison operator.\r\n     *\r\n     * The function will revert the transaction if the orders cannot be matched.\r\n     *\r\n     * @param takerOrderParam The OrderParam object representing the taker's order data\r\n     * @param makerOrderParam The OrderParam object representing the maker's order data\r\n     */\r\n    function validatePrice(OrderParam memory takerOrderParam, OrderParam memory makerOrderParam)\r\n        internal\r\n        pure\r\n    {\r\n        uint256 left = takerOrderParam.quoteTokenAmount.mul(makerOrderParam.baseTokenAmount);\r\n        uint256 right = takerOrderParam.baseTokenAmount.mul(makerOrderParam.quoteTokenAmount);\r\n        require(isSell(takerOrderParam.data) ? left <= right : left >= right, INVALID_MATCH);\r\n    }\r\n\r\n    /**\r\n     * Construct a MatchResult from matching taker and maker order data, which will be used when\r\n     * settling the orders and transferring token.\r\n     *\r\n     * @param takerOrderParam The OrderParam object representing the taker's order data\r\n     * @param takerOrderInfo The OrderInfo object representing the current taker order state\r\n     * @param makerOrderParam The OrderParam object representing the maker's order data\r\n     * @param makerOrderInfo The OrderInfo object representing the current maker order state\r\n     * @param takerFeeRate The rate used to calculate the fee charged to the taker\r\n     * @param isParticipantRelayer Whether this relayer is participating in hot discount\r\n     * @return MatchResult object containing data that will be used during order settlement.\r\n     */\r\n    function getMatchResult(\r\n        OrderParam memory takerOrderParam,\r\n        OrderInfo memory takerOrderInfo,\r\n        OrderParam memory makerOrderParam,\r\n        OrderInfo memory makerOrderInfo,\r\n        uint256 baseTokenFilledAmount,\r\n        uint256 takerFeeRate,\r\n        bool isParticipantRelayer\r\n    )\r\n        internal\r\n        returns (MatchResult memory result)\r\n    {\r\n        result.baseTokenFilledAmount = baseTokenFilledAmount;\r\n        result.quoteTokenFilledAmount = convertBaseToQuote(makerOrderParam, baseTokenFilledAmount);\r\n\r\n        // Each order only pays gas once, so only pay gas when nothing has been filled yet.\r\n        if (takerOrderInfo.filledAmount == 0) {\r\n            result.takerGasFee = takerOrderParam.gasTokenAmount;\r\n        }\r\n\r\n        if (makerOrderInfo.filledAmount == 0) {\r\n            result.makerGasFee = makerOrderParam.gasTokenAmount;\r\n        }\r\n\r\n        if(!isMarketBuy(takerOrderParam.data)) {\r\n            takerOrderInfo.filledAmount = takerOrderInfo.filledAmount.add(result.baseTokenFilledAmount);\r\n            require(takerOrderInfo.filledAmount <= takerOrderParam.baseTokenAmount, TAKER_ORDER_OVER_MATCH);\r\n        } else {\r\n            takerOrderInfo.filledAmount = takerOrderInfo.filledAmount.add(result.quoteTokenFilledAmount);\r\n            require(takerOrderInfo.filledAmount <= takerOrderParam.quoteTokenAmount, TAKER_ORDER_OVER_MATCH);\r\n        }\r\n\r\n        makerOrderInfo.filledAmount = makerOrderInfo.filledAmount.add(result.baseTokenFilledAmount);\r\n        require(makerOrderInfo.filledAmount <= makerOrderParam.baseTokenAmount, MAKER_ORDER_OVER_MATCH);\r\n\r\n        result.maker = makerOrderParam.trader;\r\n        result.taker = takerOrderParam.trader;\r\n\r\n        if(isSell(takerOrderParam.data)) {\r\n            result.buyer = result.maker;\r\n        } else {\r\n            result.buyer = result.taker;\r\n        }\r\n\r\n        uint256 rebateRate = getMakerRebateRateFromOrderData(makerOrderParam.data);\r\n\r\n        if (rebateRate > 0) {\r\n            // If the rebate rate is not zero, maker pays no fees.\r\n            result.makerFee = 0;\r\n\r\n            // RebateRate will never exceed REBATE_RATE_BASE, so rebateFee will never exceed the fees paid by the taker.\r\n            result.makerRebate = result.quoteTokenFilledAmount.mul(takerFeeRate).mul(rebateRate).div(\r\n                FEE_RATE_BASE.mul(DISCOUNT_RATE_BASE).mul(REBATE_RATE_BASE)\r\n            );\r\n        } else {\r\n            uint256 makerRawFeeRate = getAsMakerFeeRateFromOrderData(makerOrderParam.data);\r\n            result.makerRebate = 0;\r\n\r\n            // maker fee will be reduced, but still >= 0\r\n            uint256 makerFeeRate = getFinalFeeRate(\r\n                makerOrderParam.trader,\r\n                makerRawFeeRate,\r\n                isParticipantRelayer\r\n            );\r\n\r\n            result.makerFee = result.quoteTokenFilledAmount.mul(makerFeeRate).div(\r\n                FEE_RATE_BASE.mul(DISCOUNT_RATE_BASE)\r\n            );\r\n        }\r\n\r\n        result.takerFee = result.quoteTokenFilledAmount.mul(takerFeeRate).div(\r\n            FEE_RATE_BASE.mul(DISCOUNT_RATE_BASE)\r\n        );\r\n    }\r\n\r\n    /**\r\n     * Get the rate used to calculate the taker fee.\r\n     *\r\n     * @param orderParam The OrderParam object representing the taker order data.\r\n     * @param isParticipantRelayer Whether this relayer is participating in hot discount.\r\n     * @return The final potentially discounted rate to use for the taker fee.\r\n     */\r\n    function getTakerFeeRate(OrderParam memory orderParam, bool isParticipantRelayer)\r\n        internal\r\n        returns(uint256)\r\n    {\r\n        uint256 rawRate = getAsTakerFeeRateFromOrderData(orderParam.data);\r\n        return getFinalFeeRate(orderParam.trader, rawRate, isParticipantRelayer);\r\n    }\r\n\r\n    /**\r\n     * Take a fee rate and calculate the potentially discounted rate for this trader based on\r\n     * HOT token ownership.\r\n     *\r\n     * @param trader The address of the trader who made the order.\r\n     * @param rate The raw rate which we will discount if needed.\r\n     * @param isParticipantRelayer Whether this relayer is participating in hot discount.\r\n     * @return The final potentially discounted rate.\r\n     */\r\n    function getFinalFeeRate(address trader, uint256 rate, bool isParticipantRelayer)\r\n        internal\r\n        returns(uint256)\r\n    {\r\n        if (isParticipantRelayer) {\r\n            return rate.mul(getDiscountedRate(trader));\r\n        } else {\r\n            return rate.mul(DISCOUNT_RATE_BASE);\r\n        }\r\n    }\r\n\r\n    /**\r\n     * Take an amount and convert it from base token units to quote token units based on the price\r\n     * in the order param.\r\n     *\r\n     * @param orderParam The OrderParam object containing the Order data.\r\n     * @param amount An amount of base token.\r\n     * @return The converted amount in quote token units.\r\n     */\r\n    function convertBaseToQuote(OrderParam memory orderParam, uint256 amount)\r\n        internal\r\n        pure\r\n        returns (uint256)\r\n    {\r\n        return getPartialAmountFloor(\r\n            orderParam.quoteTokenAmount,\r\n            orderParam.baseTokenAmount,\r\n            amount\r\n        );\r\n    }\r\n\r\n    /**\r\n     * Take an amount and convert it from quote token units to base token units based on the price\r\n     * in the order param.\r\n     *\r\n     * @param orderParam The OrderParam object containing the Order data.\r\n     * @param amount An amount of quote token.\r\n     * @return The converted amount in base token units.\r\n     */\r\n    function convertQuoteToBase(OrderParam memory orderParam, uint256 amount)\r\n        internal\r\n        pure\r\n        returns (uint256)\r\n    {\r\n        return getPartialAmountFloor(\r\n            orderParam.baseTokenAmount,\r\n            orderParam.quoteTokenAmount,\r\n            amount\r\n        );\r\n    }\r\n\r\n    /**\r\n     * Take a list of matches and settle them with the taker order, transferring tokens all tokens\r\n     * and paying all fees necessary to complete the transaction.\r\n     *\r\n     * @param results List of MatchResult objects representing each individual trade to settle.\r\n     * @param takerOrderParam The OrderParam object representing the taker order data.\r\n     * @param orderAddressSet An object containing addresses common across each order.\r\n     */\r\n    function settleResults(\r\n        MatchResult[] memory results,\r\n        OrderParam memory takerOrderParam,\r\n        OrderAddressSet memory orderAddressSet\r\n    )\r\n        internal\r\n    {\r\n        if (isSell(takerOrderParam.data)) {\r\n            settleTakerSell(results, orderAddressSet);\r\n        } else {\r\n            settleTakerBuy(results, orderAddressSet);\r\n        }\r\n    }\r\n\r\n    /**\r\n     * Settles a sell order given a list of MatchResult objects. A naive approach would be to take\r\n     * each result, have the taker and maker transfer the appropriate tokens, and then have them\r\n     * each send the appropriate fees to the relayer, meaning that for n makers there would be 4n\r\n     * transactions. Additionally the taker would have to have an allowance set for the quote token\r\n     * in order to pay the fees to the relayer.\r\n     *\r\n     * Instead we do the following:\r\n     *  - Taker transfers the required base token to each maker\r\n     *  - Each maker sends an amount of quote token to the relayer equal to:\r\n     *    [Amount owed to taker] + [Maker fee] + [Maker gas cost] - [Maker rebate amount]\r\n     *  - The relayer will then take all of this quote token and in a single batch transaction\r\n     *    send the appropriate amount to the taker, equal to:\r\n     *    [Total amount owed to taker] - [All taker fees] - [All taker gas costs]\r\n     *\r\n     * Thus in the end the taker will have the full amount of quote token, sans the fee and cost of\r\n     * their share of gas. Each maker will have their share of base token, sans the fee and cost of\r\n     * their share of gas, and will keep their rebate in quote token. The relayer will end up with\r\n     * the fees from the taker and each maker (sans rebate), and the gas costs will pay for the\r\n     * transactions. In this scenario, with n makers there will be 2n + 1 transactions, which will\r\n     * be a significant gas savings over the original method.\r\n     *\r\n     * @param results A list of MatchResult objects representing each individual trade to settle.\r\n     * @param orderAddressSet An object containing addresses common across each order.\r\n     */\r\n    function settleTakerSell(MatchResult[] memory results, OrderAddressSet memory orderAddressSet) internal {\r\n        uint256 totalTakerQuoteTokenFilledAmount = 0;\r\n\r\n        for (uint256 i = 0; i < results.length; i++) {\r\n            transferFrom(\r\n                orderAddressSet.baseToken,\r\n                results[i].taker,\r\n                results[i].maker,\r\n                results[i].baseTokenFilledAmount\r\n            );\r\n\r\n            transferFrom(\r\n                orderAddressSet.quoteToken,\r\n                results[i].maker,\r\n                orderAddressSet.relayer,\r\n                results[i].quoteTokenFilledAmount.\r\n                    add(results[i].makerFee).\r\n                    add(results[i].makerGasFee).\r\n                    sub(results[i].makerRebate)\r\n            );\r\n\r\n            totalTakerQuoteTokenFilledAmount = totalTakerQuoteTokenFilledAmount.add(\r\n                results[i].quoteTokenFilledAmount.sub(results[i].takerFee)\r\n            );\r\n\r\n            emitMatchEvent(results[i], orderAddressSet);\r\n        }\r\n\r\n        transferFrom(\r\n            orderAddressSet.quoteToken,\r\n            orderAddressSet.relayer,\r\n            results[0].taker,\r\n            totalTakerQuoteTokenFilledAmount.sub(results[0].takerGasFee)\r\n        );\r\n    }\r\n\r\n    /**\r\n     * Settles a buy order given a list of MatchResult objects. A naive approach would be to take\r\n     * each result, have the taker and maker transfer the appropriate tokens, and then have them\r\n     * each send the appropriate fees to the relayer, meaning that for n makers there would be 4n\r\n     * transactions. Additionally each maker would have to have an allowance set for the quote token\r\n     * in order to pay the fees to the relayer.\r\n     *\r\n     * Instead we do the following:\r\n     *  - Each maker transfers base tokens to the taker\r\n     *  - The taker sends an amount of quote tokens to each maker equal to:\r\n     *    [Amount owed to maker] + [Maker rebate amount] - [Maker fee] - [Maker gas cost]\r\n     *  - Since the taker saved all the maker fees and gas costs, it can then send them as a single\r\n     *    batch transaction to the relayer, equal to:\r\n     *    [All maker and taker fees] + [All maker and taker gas costs] - [All maker rebates]\r\n     *\r\n     * Thus in the end the taker will have the full amount of base token, sans the fee and cost of\r\n     * their share of gas. Each maker will have their share of quote token, including their rebate,\r\n     * but sans the fee and cost of their share of gas. The relayer will end up with the fees from\r\n     * the taker and each maker (sans rebates), and the gas costs will pay for the transactions. In\r\n     * this scenario, with n makers there will be 2n + 1 transactions, which will be a significant\r\n     * gas savings over the original method.\r\n     *\r\n     * @param results A list of MatchResult objects representing each individual trade to settle.\r\n     * @param orderAddressSet An object containing addresses common across each order.\r\n     */\r\n    function settleTakerBuy(MatchResult[] memory results, OrderAddressSet memory orderAddressSet) internal {\r\n        uint256 totalFee = 0;\r\n\r\n        for (uint256 i = 0; i < results.length; i++) {\r\n            transferFrom(\r\n                orderAddressSet.baseToken,\r\n                results[i].maker,\r\n                results[i].taker,\r\n                results[i].baseTokenFilledAmount\r\n            );\r\n\r\n            transferFrom(\r\n                orderAddressSet.quoteToken,\r\n                results[i].taker,\r\n                results[i].maker,\r\n                results[i].quoteTokenFilledAmount.\r\n                    sub(results[i].makerFee).\r\n                    sub(results[i].makerGasFee).\r\n                    add(results[i].makerRebate)\r\n            );\r\n\r\n            totalFee = totalFee.\r\n                add(results[i].takerFee).\r\n                add(results[i].makerFee).\r\n                add(results[i].makerGasFee).\r\n                add(results[i].takerGasFee).\r\n                sub(results[i].makerRebate);\r\n\r\n            emitMatchEvent(results[i], orderAddressSet);\r\n        }\r\n\r\n        transferFrom(\r\n            orderAddressSet.quoteToken,\r\n            results[0].taker,\r\n            orderAddressSet.relayer,\r\n            totalFee\r\n        );\r\n    }\r\n\r\n    /**\r\n     * A helper function to call the transferFrom function in Proxy.sol with solidity assembly.\r\n     * Copying the data in order to make an external call can be expensive, but performing the\r\n     * operations in assembly seems to reduce gas cost.\r\n     *\r\n     * The function will revert the transaction if the transfer fails.\r\n     *\r\n     * @param token The address of the ERC20 token we will be transferring, 0 for ETH.\r\n     * @param from The address we will be transferring from.\r\n     * @param to The address we will be transferring to.\r\n     * @param value The amount of token we will be transferring.\r\n     */\r\n    function transferFrom(address token, address from, address to, uint256 value) internal {\r\n        if (value == 0) {\r\n            return;\r\n        }\r\n\r\n        address proxy = proxyAddress;\r\n        uint256 result;\r\n\r\n        /**\r\n         * We construct calldata for the `Proxy.transferFrom` ABI.\r\n         * The layout of this calldata is in the table below.\r\n         *\r\n         * \r\n         *  Area    Offset  Length  Contents          \r\n         * \r\n         *  Header  0       4       function selector \r\n         *  Params  4       32      token address     \r\n         *          36      32      from address      \r\n         *          68      32      to address        \r\n         *          100     32      amount of token   \r\n         * \r\n         */\r\n        assembly {\r\n            // Keep these so we can restore stack memory upon completion\r\n            let tmp1 := mload(0)\r\n            let tmp2 := mload(4)\r\n            let tmp3 := mload(36)\r\n            let tmp4 := mload(68)\r\n            let tmp5 := mload(100)\r\n\r\n            // keccak256('transferFrom(address,address,address,uint256)') bitmasked to 4 bytes\r\n            mstore(0, 0x15dacbea00000000000000000000000000000000000000000000000000000000)\r\n            mstore(4, token)\r\n            mstore(36, from)\r\n            mstore(68, to)\r\n            mstore(100, value)\r\n\r\n            // Call Proxy contract transferFrom function using constructed calldata\r\n            result := call(\r\n                gas,   // Forward all gas\r\n                proxy, // Proxy.sol deployment address\r\n                0,     // Don't send any ETH\r\n                0,     // Pointer to start of calldata\r\n                132,   // Length of calldata\r\n                0,     // Output location\r\n                0      // We don't expect any output\r\n            )\r\n\r\n            // Restore stack memory\r\n            mstore(0, tmp1)\r\n            mstore(4, tmp2)\r\n            mstore(36, tmp3)\r\n            mstore(68, tmp4)\r\n            mstore(100, tmp5)\r\n        }\r\n\r\n        if (result == 0) {\r\n            revert(TRANSFER_FROM_FAILED);\r\n        }\r\n    }\r\n\r\n    function emitMatchEvent(MatchResult memory result, OrderAddressSet memory orderAddressSet) internal {\r\n        emit Match(\r\n            orderAddressSet, result\r\n        );\r\n    }\r\n}\r\n",
  "sourcePath": "/home/henry/learning/git/ethereum/contracts/DDEX.sol",
  "compiler": {
    "name": "solc",
    "version": "0.5.16+commit.9c3226ce.Emscripten.clang"
  },
  "schemaVersion": "3.1.0",
  "updatedAt": "2020-08-15T14:26:47.970Z",
  "devdoc": {
    "methods": {
      "canMatchOrdersFrom(address)": {
        "return": "true if msg.sender is allowed to match orders which belong to relayer"
      },
      "cancelOrder((address,address,address,address,uint256,uint256,uint256,bytes32))": {
        "params": {
          "order": "The order to be cancelled."
        }
      },
      "changeDiscountConfig(bytes32)": {
        "params": {
          "newConfig": "A data blob representing the new discount config. Details on format above."
        }
      },
      "getDiscountedRate(address)": {
        "params": {
          "user": "The user address to calculate a fee discount for."
        },
        "return": "The percentage of the regular fee this user will pay."
      },
      "isOwner()": {
        "return": "true if `msg.sender` is the owner of the contract."
      },
      "isParticipant(address)": {
        "return": "true if relayer is participating in the Hydro incentive system."
      },
      "matchOrders((address,uint256,uint256,uint256,bytes32,(bytes32,bytes32,bytes32)),(address,uint256,uint256,uint256,bytes32,(bytes32,bytes32,bytes32))[],uint256[],(address,address,address))": {
        "params": {
          "makerOrderParams": "An array of OrderParam objects representing orders from a list of makers.",
          "orderAddressSet": "An object containing addresses common across each order.",
          "takerOrderParam": "A OrderParam object representing the order from the taker."
        }
      },
      "owner()": {
        "return": "the address of the owner."
      },
      "renounceOwnership()": {
        "details": "Allows the current owner to relinquish control of the contract."
      },
      "transferOwnership(address)": {
        "details": "Allows the current owner to transfer control of the contract to a newOwner.",
        "params": {
          "newOwner": "The address to transfer ownership to."
        }
      }
    }
  },
  "userdoc": {
    "methods": {
      "approveDelegate(address)": {
        "notice": "Approve an address to match orders on behalf of msg.sender"
      },
      "cancelOrder((address,address,address,address,uint256,uint256,uint256,bytes32))": {
        "notice": "Cancels an order, preventing it from being matched. In practice, matching mode relayers will generally handle cancellation off chain by removing the order from their system, however if the trader wants to ensure the order never goes through, or they no longer trust the relayer, this function may be called to block it from ever matching at the contract level.      * Emits a Cancel event on success. "
      },
      "changeDiscountConfig(bytes32)": {
        "notice": "Owner can modify discount configuration. "
      },
      "exitIncentiveSystem()": {
        "notice": "Exit the Hydro incentive system. For relayers that choose to opt-out, the Hydro Protocol effective becomes a tokenless protocol."
      },
      "getDiscountedRate(address)": {
        "notice": "Calculate and return the rate at which fees will be charged for an address. The discounted rate depends on how much HOT token is owned by the user. Values returned will be a percentage used to calculate how much of the fee is paid, so a return value of 100 means there is 0 discount, and a return value of 70 means a 30% rate reduction.      * The discountConfig is defined as such:                      length(bytes)   desc                          count              1               the count of configs         maxDiscountedRate  1               the max discounted rate      config             5 each                                            * The default discount structure as defined in code would give the following result:      * Fee discount table       HOT BALANCE     DISCOUNT        0 <= x < 10000      0%      10000 <= x < 20000     10%      20000 <= x < 30000     20%      30000 <= x < 40000     30%      40000 <= x             40%          * Breaking down the bytes of 0x043c000027106400004e205a000075305000009c404600000000000000000000      * 0x  04           3c          0000271064  00004e205a  0000753050  00009c4046  0000000000  0000000000;    ~~           ~~          ~~~~~~~~~~  ~~~~~~~~~~  ~~~~~~~~~~  ~~~~~~~~~~  ~~~~~~~~~~  ~~~~~~~~~~     |            |               |           |           |           |           |           |   count  maxDiscountedRate       1           2           3           4           5           6      * The first config breaks down as follows:  00002710   64                                          ~~~~~~~~   ~~                                              |      |                                             bar    rate      * Meaning if a user has less than 10000 (0x00002710) HOT, they will pay 100%(0x64) of the standard fee. "
      },
      "joinIncentiveSystem()": {
        "notice": "Join the Hydro incentive system."
      },
      "matchOrders((address,uint256,uint256,uint256,bytes32,(bytes32,bytes32,bytes32)),(address,uint256,uint256,uint256,bytes32,(bytes32,bytes32,bytes32))[],uint256[],(address,address,address))": {
        "notice": "Match taker order to a list of maker orders. Common addresses are passed in separately as an OrderAddressSet to reduce call size data and save gas. "
      },
      "renounceOwnership()": {
        "notice": "Renouncing to ownership will leave the contract without an owner. It will not be possible to call the functions with the `onlyOwner` modifier anymore."
      },
      "revokeDelegate(address)": {
        "notice": "Revoke an existing delegate"
      }
    }
  }
}