{
  "contractName": "LibWhitelist",
  "abi": [
    {
      "constant": false,
      "inputs": [],
      "name": "renounceOwnership",
      "outputs": [],
      "payable": false,
      "stateMutability": "nonpayable",
      "type": "function"
    },
    {
      "constant": true,
      "inputs": [],
      "name": "owner",
      "outputs": [
        {
          "name": "",
          "type": "address"
        }
      ],
      "payable": false,
      "stateMutability": "view",
      "type": "function"
    },
    {
      "constant": true,
      "inputs": [],
      "name": "isOwner",
      "outputs": [
        {
          "name": "",
          "type": "bool"
        }
      ],
      "payable": false,
      "stateMutability": "view",
      "type": "function"
    },
    {
      "constant": true,
      "inputs": [
        {
          "name": "",
          "type": "address"
        }
      ],
      "name": "whitelist",
      "outputs": [
        {
          "name": "",
          "type": "bool"
        }
      ],
      "payable": false,
      "stateMutability": "view",
      "type": "function"
    },
    {
      "constant": true,
      "inputs": [
        {
          "name": "",
          "type": "uint256"
        }
      ],
      "name": "allAddresses",
      "outputs": [
        {
          "name": "",
          "type": "address"
        }
      ],
      "payable": false,
      "stateMutability": "view",
      "type": "function"
    },
    {
      "constant": false,
      "inputs": [
        {
          "name": "newOwner",
          "type": "address"
        }
      ],
      "name": "transferOwnership",
      "outputs": [],
      "payable": false,
      "stateMutability": "nonpayable",
      "type": "function"
    },
    {
      "anonymous": false,
      "inputs": [
        {
          "indexed": true,
          "name": "adr",
          "type": "address"
        }
      ],
      "name": "AddressAdded",
      "type": "event"
    },
    {
      "anonymous": false,
      "inputs": [
        {
          "indexed": true,
          "name": "adr",
          "type": "address"
        }
      ],
      "name": "AddressRemoved",
      "type": "event"
    },
    {
      "anonymous": false,
      "inputs": [
        {
          "indexed": true,
          "name": "previousOwner",
          "type": "address"
        },
        {
          "indexed": true,
          "name": "newOwner",
          "type": "address"
        }
      ],
      "name": "OwnershipTransferred",
      "type": "event"
    },
    {
      "constant": false,
      "inputs": [
        {
          "name": "adr",
          "type": "address"
        }
      ],
      "name": "addAddress",
      "outputs": [],
      "payable": false,
      "stateMutability": "nonpayable",
      "type": "function"
    },
    {
      "constant": false,
      "inputs": [
        {
          "name": "adr",
          "type": "address"
        }
      ],
      "name": "removeAddress",
      "outputs": [],
      "payable": false,
      "stateMutability": "nonpayable",
      "type": "function"
    },
    {
      "constant": true,
      "inputs": [],
      "name": "getAllAddresses",
      "outputs": [
        {
          "name": "",
          "type": "address[]"
        }
      ],
      "payable": false,
      "stateMutability": "view",
      "type": "function"
    }
  ],
  "bytecode": "0x6080604052336000806101000a81548173ffffffffffffffffffffffffffffffffffffffff021916908373ffffffffffffffffffffffffffffffffffffffff1602179055506000809054906101000a900473ffffffffffffffffffffffffffffffffffffffff1673ffffffffffffffffffffffffffffffffffffffff16600073ffffffffffffffffffffffffffffffffffffffff167f8be0079c531659141344cd1fd0a4f28419497f9722a3daafe3b4186f6b6457e060405160405180910390a3610bc9806100cf6000396000f3fe608060405234801561001057600080fd5b50600436106100935760003560e01c80638f32d59b116100665780638f32d59b146101745780639516a104146101965780639b19251a146101f5578063dacc537014610251578063f2fde38b146102bf57610093565b806338eada1c146100985780634ba79dfe146100dc578063715018a6146101205780638da5cb5b1461012a575b600080fd5b6100da600480360360208110156100ae57600080fd5b81019080803573ffffffffffffffffffffffffffffffffffffffff169060200190929190505050610303565b005b61011e600480360360208110156100f257600080fd5b81019080803573ffffffffffffffffffffffffffffffffffffffff169060200190929190505050610480565b005b6101286106ce565b005b610132610807565b604051808273ffffffffffffffffffffffffffffffffffffffff1673ffffffffffffffffffffffffffffffffffffffff16815260200191505060405180910390f35b61017c610830565b604051808215151515815260200191505060405180910390f35b61019e610887565b6040518080602001828103825283818151815260200191508051906020019060200280838360005b838110156101e15780820151818401526020810190506101c6565b505050509050019250505060405180910390f35b6102376004803603602081101561020b57600080fd5b81019080803573ffffffffffffffffffffffffffffffffffffffff169060200190929190505050610915565b604051808215151515815260200191505060405180910390f35b61027d6004803603602081101561026757600080fd5b8101908080359060200190929190505050610935565b604051808273ffffffffffffffffffffffffffffffffffffffff1673ffffffffffffffffffffffffffffffffffffffff16815260200191505060405180910390f35b610301600480360360208110156102d557600080fd5b81019080803573ffffffffffffffffffffffffffffffffffffffff169060200190929190505050610971565b005b61030b610830565b61037d576040517f08c379a00000000000000000000000000000000000000000000000000000000081526004018080602001828103825260098152602001807f4e4f545f4f574e4552000000000000000000000000000000000000000000000081525060200191505060405180910390fd5b8073ffffffffffffffffffffffffffffffffffffffff167fa226db3f664042183ee0281230bba26cbf7b5057e50aee7f25a175ff45ce4d7f60405160405180910390a260018060008373ffffffffffffffffffffffffffffffffffffffff1673ffffffffffffffffffffffffffffffffffffffff16815260200190815260200160002060006101000a81548160ff02191690831515021790555060028190806001815401808255809150509060018203906000526020600020016000909192909190916101000a81548173ffffffffffffffffffffffffffffffffffffffff021916908373ffffffffffffffffffffffffffffffffffffffff1602179055505050565b610488610830565b6104fa576040517f08c379a00000000000000000000000000000000000000000000000000000000081526004018080602001828103825260098152602001807f4e4f545f4f574e4552000000000000000000000000000000000000000000000081525060200191505060405180910390fd5b8073ffffffffffffffffffffffffffffffffffffffff167f24a12366c02e13fe4a9e03d86a8952e85bb74a456c16e4a18b6d8295700b74bb60405160405180910390a2600160008273ffffffffffffffffffffffffffffffffffffffff1673ffffffffffffffffffffffffffffffffffffffff16815260200190815260200160002060006101000a81549060ff021916905560008090505b6002805490508110156106ca578173ffffffffffffffffffffffffffffffffffffffff16600282815481106105c357fe5b9060005260206000200160009054906101000a900473ffffffffffffffffffffffffffffffffffffffff1673ffffffffffffffffffffffffffffffffffffffff1614156106bd5760026001600280549050038154811061061f57fe5b9060005260206000200160009054906101000a900473ffffffffffffffffffffffffffffffffffffffff166002828154811061065757fe5b9060005260206000200160006101000a81548173ffffffffffffffffffffffffffffffffffffffff021916908373ffffffffffffffffffffffffffffffffffffffff16021790555060016002818180549050039150816106b79190610b4c565b506106ca565b8080600101915050610592565b5050565b6106d6610830565b610748576040517f08c379a00000000000000000000000000000000000000000000000000000000081526004018080602001828103825260098152602001807f4e4f545f4f574e4552000000000000000000000000000000000000000000000081525060200191505060405180910390fd5b600073ffffffffffffffffffffffffffffffffffffffff166000809054906101000a900473ffffffffffffffffffffffffffffffffffffffff1673ffffffffffffffffffffffffffffffffffffffff167f8be0079c531659141344cd1fd0a4f28419497f9722a3daafe3b4186f6b6457e060405160405180910390a360008060006101000a81548173ffffffffffffffffffffffffffffffffffffffff021916908373ffffffffffffffffffffffffffffffffffffffff160217905550565b60008060009054906101000a900473ffffffffffffffffffffffffffffffffffffffff16905090565b60008060009054906101000a900473ffffffffffffffffffffffffffffffffffffffff1673ffffffffffffffffffffffffffffffffffffffff163373ffffffffffffffffffffffffffffffffffffffff1614905090565b6060600280548060200260200160405190810160405280929190818152602001828054801561090b57602002820191906000526020600020905b8160009054906101000a900473ffffffffffffffffffffffffffffffffffffffff1673ffffffffffffffffffffffffffffffffffffffff16815260200190600101908083116108c1575b5050505050905090565b60016020528060005260406000206000915054906101000a900460ff1681565b6002818154811061094257fe5b906000526020600020016000915054906101000a900473ffffffffffffffffffffffffffffffffffffffff1681565b610979610830565b6109eb576040517f08c379a00000000000000000000000000000000000000000000000000000000081526004018080602001828103825260098152602001807f4e4f545f4f574e4552000000000000000000000000000000000000000000000081525060200191505060405180910390fd5b600073ffffffffffffffffffffffffffffffffffffffff168173ffffffffffffffffffffffffffffffffffffffff161415610a8e576040517f08c379a000000000000000000000000000000000000000000000000000000000815260040180806020018281038252600d8152602001807f494e56414c49445f4f574e45520000000000000000000000000000000000000081525060200191505060405180910390fd5b8073ffffffffffffffffffffffffffffffffffffffff166000809054906101000a900473ffffffffffffffffffffffffffffffffffffffff1673ffffffffffffffffffffffffffffffffffffffff167f8be0079c531659141344cd1fd0a4f28419497f9722a3daafe3b4186f6b6457e060405160405180910390a3806000806101000a81548173ffffffffffffffffffffffffffffffffffffffff021916908373ffffffffffffffffffffffffffffffffffffffff16021790555050565b815481835581811115610b7357818360005260206000209182019101610b729190610b78565b5b505050565b610b9a91905b80821115610b96576000816000905550600101610b7e565b5090565b9056fea165627a7a723058206c9a1ae678d18542866888d3170a02009cbf1626d852b53eda4dc57410f4ffff0029",
  "source": "/**\r\n *Submitted for verification at Etherscan.io on 2018-12-14\r\n*/\r\n\r\n/*\r\n\r\n    Copyright 2018 The Hydro Protocol Foundation\r\n\r\n    Licensed under the Apache License, Version 2.0 (the \"License\");\r\n    you may not use this file except in compliance with the License.\r\n    You may obtain a copy of the License at\r\n\r\n        http://www.apache.org/licenses/LICENSE-2.0\r\n\r\n    Unless required by applicable law or agreed to in writing, software\r\n    distributed under the License is distributed on an \"AS IS\" BASIS,\r\n    WITHOUT WARRANTIES OR CONDITIONS OF ANY KIND, either express or implied.\r\n    See the License for the specific language governing permissions and\r\n    limitations under the License.\r\n\r\n*/\r\n\r\npragma solidity ^0.5.0;\r\n\r\n/// @dev Math operations with safety checks that revert on error\r\nlibrary SafeMath {\r\n\r\n    /// @dev Multiplies two numbers, reverts on overflow.\r\n    function mul(uint256 a, uint256 b) internal pure returns (uint256) {\r\n        if (a == 0) {\r\n            return 0;\r\n        }\r\n\r\n        uint256 c = a * b;\r\n        require(c / a == b, \"MUL_ERROR\");\r\n\r\n        return c;\r\n    }\r\n\r\n    /// @dev Integer division of two numbers truncating the quotient, reverts on division by zero.\r\n    function div(uint256 a, uint256 b) internal pure returns (uint256) {\r\n        require(b > 0, \"DIVIDING_ERROR\");\r\n        uint256 c = a / b;\r\n        return c;\r\n    }\r\n\r\n    /// @dev Subtracts two numbers, reverts on overflow (i.e. if subtrahend is greater than minuend).\r\n    function sub(uint256 a, uint256 b) internal pure returns (uint256) {\r\n        require(b <= a, \"SUB_ERROR\");\r\n        uint256 c = a - b;\r\n        return c;\r\n    }\r\n\r\n    /// @dev Adds two numbers, reverts on overflow.\r\n    function add(uint256 a, uint256 b) internal pure returns (uint256) {\r\n        uint256 c = a + b;\r\n        require(c >= a, \"ADD_ERROR\");\r\n        return c;\r\n    }\r\n\r\n    /// @dev Divides two numbers and returns the remainder (unsigned integer modulo), reverts when dividing by zero.\r\n    function mod(uint256 a, uint256 b) internal pure returns (uint256) {\r\n        require(b != 0, \"MOD_ERROR\");\r\n        return a % b;\r\n    }\r\n}\r\n\r\n/// @title Ownable\r\n/// @dev The Ownable contract has an owner address, and provides basic authorization control\r\n/// functions, this simplifies the implementation of \"user permissions\".\r\ncontract LibOwnable {\r\n    address private _owner;\r\n\r\n    event OwnershipTransferred(\r\n        address indexed previousOwner,\r\n        address indexed newOwner\r\n    );\r\n\r\n    /// @dev The Ownable constructor sets the original `owner` of the contract to the sender account.\r\n    constructor() internal {\r\n        _owner = msg.sender;\r\n        emit OwnershipTransferred(address(0), _owner);\r\n    }\r\n\r\n    /// @return the address of the owner.\r\n    function owner() public view returns(address) {\r\n        return _owner;\r\n    }\r\n\r\n    /// @dev Throws if called by any account other than the owner.\r\n    modifier onlyOwner() {\r\n        require(isOwner(), \"NOT_OWNER\");\r\n        _;\r\n    }\r\n\r\n    /// @return true if `msg.sender` is the owner of the contract.\r\n    function isOwner() public view returns(bool) {\r\n        return msg.sender == _owner;\r\n    }\r\n\r\n    /// @dev Allows the current owner to relinquish control of the contract.\r\n    /// @notice Renouncing to ownership will leave the contract without an owner.\r\n    /// It will not be possible to call the functions with the `onlyOwner`\r\n    /// modifier anymore.\r\n    function renounceOwnership() public onlyOwner {\r\n        emit OwnershipTransferred(_owner, address(0));\r\n        _owner = address(0);\r\n    }\r\n\r\n    /// @dev Allows the current owner to transfer control of the contract to a newOwner.\r\n    /// @param newOwner The address to transfer ownership to.\r\n    function transferOwnership(address newOwner) public onlyOwner {\r\n        require(newOwner != address(0), \"INVALID_OWNER\");\r\n        emit OwnershipTransferred(_owner, newOwner);\r\n        _owner = newOwner;\r\n    }\r\n}\r\n\r\ncontract LibWhitelist is LibOwnable {\r\n    mapping (address => bool) public whitelist;\r\n    address[] public allAddresses;\r\n\r\n    event AddressAdded(address indexed adr);\r\n    event AddressRemoved(address indexed adr);\r\n\r\n    /// @dev Only address in whitelist can invoke functions with this modifier.\r\n    modifier onlyAddressInWhitelist {\r\n        require(whitelist[msg.sender], \"SENDER_NOT_IN_WHITELIST_ERROR\");\r\n        _;\r\n    }\r\n\r\n    /// @dev add Address into whitelist\r\n    /// @param adr Address to add\r\n    function addAddress(address adr) external onlyOwner {\r\n        emit AddressAdded(adr);\r\n        whitelist[adr] = true;\r\n        allAddresses.push(adr);\r\n    }\r\n\r\n    /// @dev remove Address from whitelist\r\n    /// @param adr Address to remove\r\n    function removeAddress(address adr) external onlyOwner {\r\n        emit AddressRemoved(adr);\r\n        delete whitelist[adr];\r\n        for(uint i = 0; i < allAddresses.length; i++){\r\n            if(allAddresses[i] == adr) {\r\n                allAddresses[i] = allAddresses[allAddresses.length - 1];\r\n                allAddresses.length -= 1;\r\n                break;\r\n            }\r\n        }\r\n    }\r\n\r\n    /// @dev Get all addresses in whitelist\r\n    function getAllAddresses() external view returns (address[] memory) {\r\n        return allAddresses;\r\n    }\r\n}\r\n\r\ncontract Proxy is LibWhitelist {\r\n    using SafeMath for uint256;\r\n\r\n    mapping( address => uint256 ) public balances;\r\n\r\n    event Deposit(address owner, uint256 amount);\r\n    event Withdraw(address owner, uint256 amount);\r\n    event Transfer(address indexed from, address indexed to, uint256 value);\r\n\r\n    function depositEther() public payable {\r\n        balances[msg.sender] = balances[msg.sender].add(msg.value);\r\n        emit Deposit(msg.sender, msg.value);\r\n    }\r\n\r\n    function withdrawEther(uint256 amount) public {\r\n        balances[msg.sender] = balances[msg.sender].sub(amount);\r\n        msg.sender.transfer(amount);\r\n        emit Withdraw(msg.sender, amount);\r\n    }\r\n\r\n    function () external payable {\r\n        depositEther();\r\n    }\r\n\r\n    /// @dev Invoking transferFrom.\r\n    /// @param token Address of token to transfer.\r\n    /// @param from Address to transfer token from.\r\n    /// @param to Address to transfer token to.\r\n    /// @param value Amount of token to transfer.\r\n    function transferFrom(address token, address from, address to, uint256 value)\r\n        external\r\n        onlyAddressInWhitelist\r\n    {\r\n        if (token == address(0)) {\r\n            transferEther(from, to, value);\r\n        } else {\r\n            transferToken(token, from, to, value);\r\n        }\r\n    }\r\n\r\n    function transferEther(address from, address to, uint256 value)\r\n        internal\r\n        onlyAddressInWhitelist\r\n    {\r\n        balances[from] = balances[from].sub(value);\r\n        balances[to] = balances[to].add(value);\r\n\r\n        emit Transfer(from, to, value);\r\n    }\r\n\r\n    /// @dev Calls into ERC20 Token contract, invoking transferFrom.\r\n    /// @param token Address of token to transfer.\r\n    /// @param from Address to transfer token from.\r\n    /// @param to Address to transfer token to.\r\n    /// @param value Amount of token to transfer.\r\n    function transferToken(address token, address from, address to, uint256 value)\r\n        internal\r\n        onlyAddressInWhitelist\r\n    {\r\n        assembly {\r\n\r\n            // keccak256('transferFrom(address,address,uint256)') & 0xFFFFFFFF00000000000000000000000000000000000000000000000000000000\r\n            mstore(0, 0x23b872dd00000000000000000000000000000000000000000000000000000000)\r\n\r\n            // calldatacopy(t, f, s) copy s bytes from calldata at position f to mem at position t\r\n            // copy from, to, value from calldata to memory\r\n            calldatacopy(4, 36, 96)\r\n\r\n            // call ERC20 Token contract transferFrom function\r\n            let result := call(gas, token, 0, 0, 100, 0, 32)\r\n\r\n            // Some ERC20 Token contract doesn't return any value when calling the transferFrom function successfully.\r\n            // So we consider the transferFrom call is successful in either case below.\r\n            //   1. call successfully and nothing return.\r\n            //   2. call successfully, return value is 32 bytes long and the value isn't equal to zero.\r\n            switch eq(result, 1)\r\n            case 1 {\r\n                switch or(eq(returndatasize, 0), and(eq(returndatasize, 32), gt(mload(0), 0)))\r\n                case 1 {\r\n                    return(0, 0)\r\n                }\r\n            }\r\n        }\r\n\r\n        revert(\"TOKEN_TRANSFER_FROM_ERROR\");\r\n    }\r\n}\r\n",
  "sourcePath": "/home/henry/learning/git/ethereum/contracts/ProxyDDEX.sol",
  "compiler": {
    "name": "solc",
    "version": "0.5.8+commit.23d335f2.Emscripten.clang"
  },
  "schemaVersion": "3.0.11",
  "updatedAt": "2019-11-04T06:17:48.253Z",
  "devdoc": {
    "methods": {
      "addAddress(address)": {
        "params": {
          "adr": "Address to add"
        }
      },
      "getAllAddresses()": {
        "details": "Get all addresses in whitelist"
      },
      "isOwner()": {
        "return": "true if `msg.sender` is the owner of the contract."
      },
      "owner()": {
        "return": "the address of the owner."
      },
      "removeAddress(address)": {
        "params": {
          "adr": "Address to remove"
        }
      },
      "transferOwnership(address)": {
        "params": {
          "newOwner": "The address to transfer ownership to."
        }
      }
    }
  },
  "userdoc": {
    "methods": {
      "renounceOwnership()": {
        "notice": "modifier anymore."
      }
    }
  }
}