{
  "contractName": "MXC",
  "abi": [
    {
      "inputs": [],
      "payable": false,
      "stateMutability": "nonpayable",
      "type": "constructor"
    },
    {
      "anonymous": false,
      "inputs": [
        {
          "indexed": false,
          "name": "random",
          "type": "uint256"
        }
      ],
      "name": "Random",
      "type": "event"
    },
    {
      "constant": false,
      "inputs": [
        {
          "name": "seed",
          "type": "uint256"
        }
      ],
      "name": "random",
      "outputs": [
        {
          "name": "",
          "type": "uint256"
        }
      ],
      "payable": false,
      "stateMutability": "nonpayable",
      "type": "function"
    },
    {
      "constant": true,
      "inputs": [],
      "name": "getSeed",
      "outputs": [
        {
          "name": "",
          "type": "uint256"
        }
      ],
      "payable": false,
      "stateMutability": "view",
      "type": "function"
    }
  ],
  "bytecode": "0x60806040526000805534801561001457600080fd5b50610207806100246000396000f3fe608060405234801561001057600080fd5b50600436106100365760003560e01c806339e7357c1461003b578063b863bd3714610059575b600080fd5b61004361009b565b6040518082815260200191505060405180910390f35b6100856004803603602081101561006f57600080fd5b81019080803590602001909291905050506100a4565b6040518082815260200191505060405180910390f35b60008054905090565b600080600090503273ffffffffffffffffffffffffffffffffffffffff163373ffffffffffffffffffffffffffffffffffffffff161461014c576040517f08c379a00000000000000000000000000000000000000000000000000000000081526004018080602001828103825260168152602001807f4d5553545f4f524944494e4152595f4143434f554e540000000000000000000081525060200191505060405180910390fd5b826000808282540192505081905550600143034060001c90508060005460405160200180838152602001828152602001925050506040516020818303038152906040528051906020012060001c90507fbcf69e7223438137d9099bb71b1772c3eb2a5a8840750b247913cd6fd4d249d5816040518082815260200191505060405180910390a18091505091905056fea165627a7a72305820d8d4fadf7e88ab1e4b72c3e49243539a16bc3ff23cdb665b4941bb7e7f743b850029",
  "source": "\npragma solidity ^0.5.0;\n\n/* contract MXC for test\n * */\ncontract MXC {\n\n    uint256 private _seed = 0;\n\n    event Random(uint256 random);\n\n    /* constructor\n    * */\n    constructor() public {\n    }\n\n    /* create random number\n    * */\n    function random(uint256 seed) public returns(uint256) {\n        uint256 ret = 0;\n        require(msg.sender == tx.origin, \"MUST_ORIDINARY_ACCOUNT\");\n        _seed += seed;\n        ret = uint256(blockhash(block.number - 1));\n        ret = uint256(keccak256(abi.encodePacked(ret, _seed)));\n        emit Random(ret);\n\n        return ret;\n    }\n\n    /* get seed\n     * */\n    function getSeed() public view returns(uint256) {\n        return _seed;\n    }\n}\n\n\n",
  "sourcePath": "/home/henry/learning/git/ethereum/contracts/MXC.sol",
  "compiler": {
    "name": "solc",
    "version": "0.5.8+commit.23d335f2.Emscripten.clang"
  },
  "schemaVersion": "3.0.11",
  "updatedAt": "2019-12-02T12:17:36.808Z",
  "devdoc": {
    "methods": {}
  },
  "userdoc": {
    "methods": {}
  }
}