{
  "contractName": "Random",
  "abi": [
    {
      "inputs": [],
      "payable": false,
      "stateMutability": "nonpayable",
      "type": "constructor"
    },
    {
      "constant": false,
      "inputs": [
        {
          "name": "seed",
          "type": "uint256"
        }
      ],
      "name": "random",
      "outputs": [
        {
          "name": "ret",
          "type": "uint256"
        }
      ],
      "payable": false,
      "stateMutability": "nonpayable",
      "type": "function"
    }
  ],
  "bytecode": "0x60806040526000805534801561001457600080fd5b50610195806100246000396000f3fe608060405234801561001057600080fd5b506004361061002b5760003560e01c8063b863bd3714610030575b600080fd5b61005c6004803603602081101561004657600080fd5b8101908080359060200190929190505050610072565b6040518082815260200191505060405180910390f35b60003273ffffffffffffffffffffffffffffffffffffffff163373ffffffffffffffffffffffffffffffffffffffff1614610115576040517f08c379a00000000000000000000000000000000000000000000000000000000081526004018080602001828103825260168152602001807f4d5553545f4f524944494e4152595f4143434f554e540000000000000000000081525060200191505060405180910390fd5b816000808282540192505081905550600143034060001c90508060005460405160200180838152602001828152602001925050506040516020818303038152906040528051906020012060001c905091905056fea165627a7a72305820e4dd55600943c17108a9377bb9d84f35fb028c9856f848afce8d92013bef74910029",
  "source": "pragma solidity ^0.5.0;\n\ncontract Random {\n\n    uint256 private _seed = 0;\n\n    /* constructor\n     * */\n    constructor() public {\n    }\n\n    /* create random number\n     * */\n    function random(uint256 seed) public returns(uint256 ret) {\n        require(msg.sender == tx.origin, \"MUST_ORIDINARY_ACCOUNT\");\n        _seed += seed;\n        ret = uint256(blockhash(block.number - 1));\n        ret = uint256(keccak256(abi.encodePacked(ret, _seed)));\n    }\n\n}\n",
  "sourcePath": "/home/henry/learning/git/ethereum/contracts/Random.sol",
  "compiler": {
    "name": "solc",
    "version": "0.5.8+commit.23d335f2.Emscripten.clang"
  },
  "schemaVersion": "3.0.11",
  "updatedAt": "2019-12-02T08:06:41.912Z",
  "devdoc": {
    "methods": {}
  },
  "userdoc": {
    "methods": {}
  }
}