{
  "contractName": "Random",
  "abi": [
    {
      "inputs": [],
      "payable": false,
      "stateMutability": "nonpayable",
      "type": "constructor"
    },
    {
      "constant": false,
      "inputs": [
        {
          "internalType": "uint256",
          "name": "seed",
          "type": "uint256"
        }
      ],
      "name": "random",
      "outputs": [
        {
          "internalType": "uint256",
          "name": "ret",
          "type": "uint256"
        }
      ],
      "payable": false,
      "stateMutability": "nonpayable",
      "type": "function"
    }
  ],
  "bytecode": "0x60806040526000805534801561001457600080fd5b5061019e806100246000396000f3fe608060405234801561001057600080fd5b506004361061002b5760003560e01c8063b863bd3714610030575b600080fd5b61005c6004803603602081101561004657600080fd5b8101908080359060200190929190505050610072565b6040518082815260200191505060405180910390f35b60003273ffffffffffffffffffffffffffffffffffffffff163373ffffffffffffffffffffffffffffffffffffffff1614610115576040517f08c379a00000000000000000000000000000000000000000000000000000000081526004018080602001828103825260168152602001807f4d5553545f4f524944494e4152595f4143434f554e540000000000000000000081525060200191505060405180910390fd5b816000808282540192505081905550600143034060001c90508060005460405160200180838152602001828152602001925050506040516020818303038152906040528051906020012060001c905091905056fea265627a7a723158207119ca184af1cd13a22114e27de6479768010031386890439fe47d43e54ba64464736f6c63430005100032",
  "source": "pragma solidity ^0.5.0;\n\ncontract Random {\n\n    uint256 private _seed = 0;\n\n    /* constructor\n     * */\n    constructor() public {\n    }\n\n    /* create random number\n     * */\n    function random(uint256 seed) public returns(uint256 ret) {\n        require(msg.sender == tx.origin, \"MUST_ORIDINARY_ACCOUNT\");\n        _seed += seed;\n        ret = uint256(blockhash(block.number - 1));\n        ret = uint256(keccak256(abi.encodePacked(ret, _seed)));\n    }\n\n}\n",
  "sourcePath": "/home/henry/learning/git/ethereum/contracts/Random.sol",
  "compiler": {
    "name": "solc",
    "version": "0.5.16+commit.9c3226ce.Emscripten.clang"
  },
  "schemaVersion": "3.1.0",
  "updatedAt": "2020-08-15T14:26:48.377Z",
  "devdoc": {
    "methods": {}
  },
  "userdoc": {
    "methods": {}
  }
}